{
  "contractName": "FlightSuretyApp",
  "abi": [
    {
      "inputs": [
        {
          "internalType": "address",
          "name": "dataContract",
          "type": "address"
        }
      ],
      "stateMutability": "nonpayable",
      "type": "constructor"
    },
    {
      "anonymous": false,
      "inputs": [
        {
          "indexed": false,
          "internalType": "address",
          "name": "airline",
          "type": "address"
        }
      ],
      "name": "AirlineFunded",
      "type": "event"
    },
    {
      "anonymous": false,
      "inputs": [
        {
          "indexed": false,
          "internalType": "address",
          "name": "airline",
          "type": "address"
        },
        {
          "indexed": false,
          "internalType": "uint256",
          "name": "amount",
          "type": "uint256"
        }
      ],
      "name": "AirlineHasFunded",
      "type": "event"
    },
    {
      "anonymous": false,
      "inputs": [
        {
          "indexed": false,
          "internalType": "address",
          "name": "airline",
          "type": "address"
        }
      ],
      "name": "AirlineRegistered",
      "type": "event"
    },
    {
      "anonymous": false,
      "inputs": [
        {
          "indexed": false,
          "internalType": "uint256",
          "name": "flightId",
          "type": "uint256"
        }
      ],
      "name": "FlightRegistered",
      "type": "event"
    },
    {
      "anonymous": false,
      "inputs": [
        {
          "indexed": false,
          "internalType": "address",
          "name": "airline",
          "type": "address"
        },
        {
          "indexed": false,
          "internalType": "string",
          "name": "flight",
          "type": "string"
        },
        {
          "indexed": false,
          "internalType": "uint256",
          "name": "timestamp",
          "type": "uint256"
        },
        {
          "indexed": false,
          "internalType": "uint8",
          "name": "status",
          "type": "uint8"
        }
      ],
      "name": "FlightStatusInfo",
      "type": "event"
    },
    {
      "anonymous": false,
      "inputs": [
        {
          "indexed": false,
          "internalType": "bool",
          "name": "registered",
          "type": "bool"
        },
        {
          "indexed": false,
          "internalType": "uint256",
          "name": "consentCount",
          "type": "uint256"
        },
        {
          "indexed": false,
          "internalType": "uint256",
          "name": "airlineCount",
          "type": "uint256"
        }
      ],
      "name": "GrantConsensus",
      "type": "event"
    },
    {
      "anonymous": false,
      "inputs": [
        {
          "indexed": false,
          "internalType": "address",
          "name": "passenger",
          "type": "address"
        },
        {
          "indexed": false,
          "internalType": "uint256",
          "name": "flightId",
          "type": "uint256"
        }
      ],
      "name": "InsuranceValid",
      "type": "event"
    },
    {
      "anonymous": false,
      "inputs": [
        {
          "indexed": false,
          "internalType": "address",
          "name": "airline",
          "type": "address"
        },
        {
          "indexed": false,
          "internalType": "string",
          "name": "flight",
          "type": "string"
        },
        {
          "indexed": false,
          "internalType": "uint256",
          "name": "timestamp",
          "type": "uint256"
        },
        {
          "indexed": false,
          "internalType": "uint8",
          "name": "status",
          "type": "uint8"
        }
      ],
      "name": "OracleReport",
      "type": "event"
    },
    {
      "anonymous": false,
      "inputs": [
        {
          "indexed": false,
          "internalType": "uint8",
          "name": "index",
          "type": "uint8"
        },
        {
          "indexed": false,
          "internalType": "address",
          "name": "airline",
          "type": "address"
        },
        {
          "indexed": false,
          "internalType": "string",
          "name": "flight",
          "type": "string"
        },
        {
          "indexed": false,
          "internalType": "uint256",
          "name": "timestamp",
          "type": "uint256"
        }
      ],
      "name": "OracleRequest",
      "type": "event"
    },
    {
      "inputs": [],
      "name": "REGISTRATION_FEE",
      "outputs": [
        {
          "internalType": "uint256",
          "name": "",
          "type": "uint256"
        }
      ],
      "stateMutability": "view",
      "type": "function",
      "constant": true
    },
    {
      "inputs": [],
      "name": "isOperational",
      "outputs": [
        {
          "internalType": "bool",
          "name": "",
          "type": "bool"
        }
      ],
      "stateMutability": "view",
      "type": "function",
      "constant": true
    },
    {
      "inputs": [],
      "name": "getMinAirlineFund",
      "outputs": [
        {
          "internalType": "uint256",
          "name": "minAirlineFund_",
          "type": "uint256"
        }
      ],
      "stateMutability": "view",
      "type": "function",
      "constant": true
    },
    {
      "inputs": [
        {
          "internalType": "uint256",
          "name": "_minAirlineFund",
          "type": "uint256"
        }
      ],
      "name": "setMinAirlineFund",
      "outputs": [],
      "stateMutability": "nonpayable",
      "type": "function"
    },
    {
      "inputs": [],
      "name": "getMinAirlineCountNoConsensus",
      "outputs": [
        {
          "internalType": "uint8",
          "name": "minAirlineCountNoConsensus_",
          "type": "uint8"
        }
      ],
      "stateMutability": "view",
      "type": "function",
      "constant": true
    },
    {
      "inputs": [
        {
          "internalType": "uint8",
          "name": "_minAirlineCountNoConsensus",
          "type": "uint8"
        }
      ],
      "name": "setMinAirlineCountNoConsensus",
      "outputs": [],
      "stateMutability": "nonpayable",
      "type": "function"
    },
    {
      "inputs": [],
      "name": "getConsensusProportion",
      "outputs": [
        {
          "internalType": "uint8",
          "name": "consensusProportion_",
          "type": "uint8"
        }
      ],
      "stateMutability": "view",
      "type": "function",
      "constant": true
    },
    {
      "inputs": [
        {
          "internalType": "uint8",
          "name": "_consensusProportion",
          "type": "uint8"
        }
      ],
      "name": "setConsensusProportion",
      "outputs": [],
      "stateMutability": "nonpayable",
      "type": "function"
    },
    {
      "inputs": [],
      "name": "getInsuranceMaxPrice",
      "outputs": [
        {
          "internalType": "uint256",
          "name": "insuranceMaxPrice_",
          "type": "uint256"
        }
      ],
      "stateMutability": "view",
      "type": "function",
      "constant": true
    },
    {
      "inputs": [
        {
          "internalType": "uint256",
          "name": "_insuranceMaxPrice",
          "type": "uint256"
        }
      ],
      "name": "setInsuranceMaxPrice",
      "outputs": [],
      "stateMutability": "nonpayable",
      "type": "function"
    },
    {
      "inputs": [],
      "name": "getSumInsuranceNum",
      "outputs": [
        {
          "internalType": "uint8",
          "name": "sumInsuranceNum_",
          "type": "uint8"
        }
      ],
      "stateMutability": "view",
      "type": "function",
      "constant": true
    },
    {
      "inputs": [
        {
          "internalType": "uint8",
          "name": "_sumInsuranceNum",
          "type": "uint8"
        }
      ],
      "name": "setSumInsuranceNum",
      "outputs": [],
      "stateMutability": "nonpayable",
      "type": "function"
    },
    {
      "inputs": [],
      "name": "getSumInsuranceDen",
      "outputs": [
        {
          "internalType": "uint8",
          "name": "sumInsuranceDen_",
          "type": "uint8"
        }
      ],
      "stateMutability": "view",
      "type": "function",
      "constant": true
    },
    {
      "inputs": [
        {
          "internalType": "uint8",
          "name": "_sumInsuranceDen",
          "type": "uint8"
        }
      ],
      "name": "setSumInsuranceDen",
      "outputs": [],
      "stateMutability": "nonpayable",
      "type": "function"
    },
    {
      "inputs": [
        {
          "internalType": "address",
          "name": "newAirline",
          "type": "address"
        }
      ],
      "name": "registerAirline",
      "outputs": [],
      "stateMutability": "nonpayable",
      "type": "function"
    },
    {
      "inputs": [
        {
          "internalType": "address",
          "name": "_airline",
          "type": "address"
        }
      ],
      "name": "getAirline",
      "outputs": [
        {
          "internalType": "address",
          "name": "airline_",
          "type": "address"
        },
        {
          "internalType": "uint256",
          "name": "id_",
          "type": "uint256"
        },
        {
          "internalType": "bool",
          "name": "hasFunded_",
          "type": "bool"
        }
      ],
      "stateMutability": "view",
      "type": "function",
      "constant": true
    },
    {
      "inputs": [],
      "name": "fundAirline",
      "outputs": [],
      "stateMutability": "payable",
      "type": "function",
      "payable": true
    },
    {
      "inputs": [
        {
          "internalType": "string",
          "name": "_flight",
          "type": "string"
        },
        {
          "internalType": "uint256",
          "name": "_timestamp",
          "type": "uint256"
        }
      ],
      "name": "registerFlight",
      "outputs": [],
      "stateMutability": "nonpayable",
      "type": "function"
    },
    {
      "inputs": [
        {
          "internalType": "uint256",
          "name": "_flightId",
          "type": "uint256"
        }
      ],
      "name": "buyInsurance",
      "outputs": [],
      "stateMutability": "payable",
      "type": "function",
      "payable": true
    },
    {
      "inputs": [
        {
          "internalType": "uint256",
          "name": "amount",
          "type": "uint256"
        }
      ],
      "name": "withdrawal",
      "outputs": [],
      "stateMutability": "nonpayable",
      "type": "function"
    },
    {
      "inputs": [
        {
          "internalType": "address",
          "name": "airline",
          "type": "address"
        },
        {
          "internalType": "string",
          "name": "flight",
          "type": "string"
        },
        {
          "internalType": "uint256",
          "name": "timestamp",
          "type": "uint256"
        },
        {
          "internalType": "uint8",
          "name": "statusCode",
          "type": "uint8"
        }
      ],
      "name": "processFlightStatus",
      "outputs": [],
      "stateMutability": "nonpayable",
      "type": "function"
    },
    {
      "inputs": [
        {
          "internalType": "address",
          "name": "airline",
          "type": "address"
        },
        {
          "internalType": "string",
          "name": "flight",
          "type": "string"
        },
        {
          "internalType": "uint256",
          "name": "timestamp",
          "type": "uint256"
        }
      ],
      "name": "fetchFlightStatus",
      "outputs": [],
      "stateMutability": "nonpayable",
      "type": "function"
    },
    {
      "inputs": [],
      "name": "registerOracle",
      "outputs": [],
      "stateMutability": "payable",
      "type": "function",
      "payable": true
    },
    {
      "inputs": [],
      "name": "getMyIndexes",
      "outputs": [
        {
          "internalType": "uint8[3]",
          "name": "myIndexes",
          "type": "uint8[3]"
        }
      ],
      "stateMutability": "view",
      "type": "function",
      "constant": true
    },
    {
      "inputs": [
        {
          "internalType": "uint8",
          "name": "index",
          "type": "uint8"
        },
        {
          "internalType": "address",
          "name": "airline",
          "type": "address"
        },
        {
          "internalType": "string",
          "name": "flight",
          "type": "string"
        },
        {
          "internalType": "uint256",
          "name": "timestamp",
          "type": "uint256"
        },
        {
          "internalType": "uint8",
          "name": "statusCode",
          "type": "uint8"
        }
      ],
      "name": "submitOracleResponse",
      "outputs": [],
      "stateMutability": "nonpayable",
      "type": "function"
    }
  ],
  "bytecode": "0x6080604052678ac7230489e800006001556003600260006101000a81548160ff021916908360ff16021790555060028060016101000a81548160ff021916908360ff160217905550670de0b6b3a76400006003556001600460006101000a81548160ff021916908360ff1602179055506002600460016101000a81548160ff021916908360ff1602179055506000600760006101000a81548160ff021916908360ff160217905550348015620000b457600080fd5b5060405162004594380380620045948339818101604052810190620000da919062000179565b33600460026101000a81548173ffffffffffffffffffffffffffffffffffffffff021916908373ffffffffffffffffffffffffffffffffffffffff160217905550806000806101000a81548173ffffffffffffffffffffffffffffffffffffffff021916908373ffffffffffffffffffffffffffffffffffffffff16021790555050620001f3565b6000815190506200017381620001d9565b92915050565b6000602082840312156200018c57600080fd5b60006200019c8482850162000162565b91505092915050565b6000620001b282620001b9565b9050919050565b600073ffffffffffffffffffffffffffffffffffffffff82169050919050565b620001e481620001a5565b8114620001f057600080fd5b50565b61439180620002036000396000f3fe6080604052600436106101655760003560e01c8063835fc6ca116100d1578063df887f301161008a578063e7bdde3b11610064578063e7bdde3b146104a2578063ea34087a146104cb578063edc88c0f146104f6578063f83f11c01461051f57610165565b8063df887f301461040d578063dfa2378014610438578063e1de04891461046357610165565b8063835fc6ca146103415780639ed189271461036a578063a86a658c14610374578063bdfd987714610390578063c10f2700146103b9578063cd905dff146103e257610165565b8063450e8b0811610123578063450e8b08146102435780634649b16e1461026c5780634f4595be1461029757806351c898fb146102c05780635f1cc0e6146102eb57806364b4f7511461031657610165565b80622dabb21461016a5780630cfaaaf9146101935780630d551d60146101bc578063339d2590146101e757806337d0bd30146101f157806339cfc9951461021a575b600080fd5b34801561017657600080fd5b50610191600480360381019061018c9190613417565b610548565b005b34801561019f57600080fd5b506101ba60048036038101906101b59190613417565b610566565b005b3480156101c857600080fd5b506101d1610584565b6040516101de9190613afe565b60405180910390f35b6101ef61058e565b005b3480156101fd57600080fd5b5061021860048036038101906102139190613417565b61067b565b005b34801561022657600080fd5b50610241600480360381019061023c9190613335565b610699565b005b34801561024f57600080fd5b5061026a60048036038101906102659190613389565b610a5a565b005b34801561027857600080fd5b50610281610a64565b60405161028e9190613b6b565b60405180910390f35b3480156102a357600080fd5b506102be60048036038101906102b99190613389565b610a7b565b005b3480156102cc57600080fd5b506102d5610a85565b6040516102e29190613afe565b60405180910390f35b3480156102f757600080fd5b50610300610a8f565b60405161030d9190613951565b60405180910390f35b34801561032257600080fd5b5061032b610bcf565b6040516103389190613afe565b60405180910390f35b34801561034d57600080fd5b5061036860048036038101906103639190613389565b610bdb565b005b610372610d48565b005b61038e60048036038101906103899190613389565b6110b2565b005b34801561039c57600080fd5b506103b760048036038101906103b291906130e2565b6114fb565b005b3480156103c557600080fd5b506103e060048036038101906103db9190613440565b611c19565b005b3480156103ee57600080fd5b506103f761201a565b604051610404919061396c565b60405180910390f35b34801561041957600080fd5b506104226120c0565b60405161042f9190613b6b565b60405180910390f35b34801561044457600080fd5b5061044d6120d7565b60405161045a9190613b6b565b60405180910390f35b34801561046f57600080fd5b5061048a600480360381019061048591906130e2565b6120ee565b6040516104999392919061391a565b60405180910390f35b3480156104ae57600080fd5b506104c960048036038101906104c49190613172565b612267565b005b3480156104d757600080fd5b506104e061269d565b6040516104ed9190613b6b565b60405180910390f35b34801561050257600080fd5b5061051d60048036038101906105189190613417565b6126b4565b005b34801561052b57600080fd5b506105466004803603810190610541919061310b565b6126d2565b005b80600260006101000a81548160ff021916908360ff16021790555050565b80600260016101000a81548160ff021916908360ff16021790555050565b6000600154905090565b670de0b6b3a76400003410156105d9576040517f08c379a00000000000000000000000000000000000000000000000000000000081526004016105d090613a9e565b60405180910390fd5b60006105e4336127cc565b9050604051806040016040528060011515815260200182815250600860003373ffffffffffffffffffffffffffffffffffffffff1673ffffffffffffffffffffffffffffffffffffffff16815260200190815260200160002060008201518160000160006101000a81548160ff021916908315150217905550602082015181600101906003610674929190612dd2565b5090505050565b80600460016101000a81548160ff021916908360ff16021790555050565b60008054906101000a900473ffffffffffffffffffffffffffffffffffffffff1673ffffffffffffffffffffffffffffffffffffffff1663cd905dff6040518163ffffffff1660e01b815260040160206040518083038186803b1580156106ff57600080fd5b505afa158015610713573d6000803e3d6000fd5b505050506040513d601f19601f82011682018060405250810190610737919061327d565b610776576040517f08c379a000000000000000000000000000000000000000000000000000000000815260040161076d90613a5e565b60405180910390fd5b3360008060008054906101000a900473ffffffffffffffffffffffffffffffffffffffff1673ffffffffffffffffffffffffffffffffffffffff1663e1de0489846040518263ffffffff1660e01b81526004016107d39190613823565b604080518083038186803b1580156107ea57600080fd5b505afa1580156107fe573d6000803e3d6000fd5b505050506040513d601f19601f8201168201806040525081019061082291906133db565b915091503360008060008054906101000a900473ffffffffffffffffffffffffffffffffffffffff1673ffffffffffffffffffffffffffffffffffffffff1663e1de0489846040518263ffffffff1660e01b81526004016108839190613823565b604080518083038186803b15801561089a57600080fd5b505afa1580156108ae573d6000803e3d6000fd5b505050506040513d601f19601f820116820180604052508101906108d291906133db565b91509150600115158115151461091d576040517f08c379a0000000000000000000000000000000000000000000000000000000008152600401610914906139fe565b60405180910390fd5b86428111610960576040517f08c379a0000000000000000000000000000000000000000000000000000000008152600401610957906139de565b60405180910390fd5b60008060009054906101000a900473ffffffffffffffffffffffffffffffffffffffff1673ffffffffffffffffffffffffffffffffffffffff1663968d1a0e338c8c60016040518563ffffffff1660e01b81526004016109c394939291906138a5565b602060405180830381600087803b1580156109dd57600080fd5b505af11580156109f1573d6000803e3d6000fd5b505050506040513d601f19601f82011682018060405250810190610a1591906133b2565b90507fa86018e7d692695dc089a725e44d87da3d5f341c02c9ec4af9f7d305ffce172781604051610a469190613afe565b60405180910390a150505050505050505050565b8060038190555050565b6000600460019054906101000a900460ff16905090565b8060018190555050565b6000600354905090565b610a97612e6c565b600860003373ffffffffffffffffffffffffffffffffffffffff1673ffffffffffffffffffffffffffffffffffffffff16815260200190815260200160002060000160009054906101000a900460ff16610b26576040517f08c379a0000000000000000000000000000000000000000000000000000000008152600401610b1d90613a1e565b60405180910390fd5b600860003373ffffffffffffffffffffffffffffffffffffffff1673ffffffffffffffffffffffffffffffffffffffff168152602001908152602001600020600101600380602002604051908101604052809291908260038015610bc5576020028201916000905b82829054906101000a900460ff1660ff1681526020019060010190602082600001049283019260010382029150808411610b8e5790505b5050505050905090565b670de0b6b3a764000081565b60008054906101000a900473ffffffffffffffffffffffffffffffffffffffff1673ffffffffffffffffffffffffffffffffffffffff1663cd905dff6040518163ffffffff1660e01b815260040160206040518083038186803b158015610c4157600080fd5b505afa158015610c55573d6000803e3d6000fd5b505050506040513d601f19601f82011682018060405250810190610c79919061327d565b610cb8576040517f08c379a0000000000000000000000000000000000000000000000000000000008152600401610caf90613a5e565b60405180910390fd5b60008054906101000a900473ffffffffffffffffffffffffffffffffffffffff1673ffffffffffffffffffffffffffffffffffffffff1663c407687633836040518363ffffffff1660e01b8152600401610d139291906138f1565b600060405180830381600087803b158015610d2d57600080fd5b505af1158015610d41573d6000803e3d6000fd5b5050505050565b60008054906101000a900473ffffffffffffffffffffffffffffffffffffffff1673ffffffffffffffffffffffffffffffffffffffff1663cd905dff6040518163ffffffff1660e01b815260040160206040518083038186803b158015610dae57600080fd5b505afa158015610dc2573d6000803e3d6000fd5b505050506040513d601f19601f82011682018060405250810190610de6919061327d565b610e25576040517f08c379a0000000000000000000000000000000000000000000000000000000008152600401610e1c90613a5e565b60405180910390fd5b3360008060008054906101000a900473ffffffffffffffffffffffffffffffffffffffff1673ffffffffffffffffffffffffffffffffffffffff1663e1de0489846040518263ffffffff1660e01b8152600401610e829190613823565b604080518083038186803b158015610e9957600080fd5b505afa158015610ead573d6000803e3d6000fd5b505050506040513d601f19601f82011682018060405250810190610ed191906133db565b91509150600154341015610f1a576040517f08c379a0000000000000000000000000000000000000000000000000000000008152600401610f1190613a7e565b60405180910390fd5b60008054906101000a900473ffffffffffffffffffffffffffffffffffffffff1673ffffffffffffffffffffffffffffffffffffffff166108fc6001549081150290604051600060405180830381858888f19350505050158015610f82573d6000803e3d6000fd5b5060008054906101000a900473ffffffffffffffffffffffffffffffffffffffff1673ffffffffffffffffffffffffffffffffffffffff16636e06fe233360016040518363ffffffff1660e01b8152600401610fdf92919061383e565b600060405180830381600087803b158015610ff957600080fd5b505af115801561100d573d6000803e3d6000fd5b505050507f2d35f70e0fd45032598472875cd073db026aa7aa98e6a190bdf8e59b2149ea97336001546040516110449291906138f1565b60405180910390a1600061106360015434612b9590919063ffffffff16565b90503373ffffffffffffffffffffffffffffffffffffffff166108fc829081150290604051600060405180830381858888f193505050501580156110ab573d6000803e3d6000fd5b5050505050565b60008054906101000a900473ffffffffffffffffffffffffffffffffffffffff1673ffffffffffffffffffffffffffffffffffffffff1663cd905dff6040518163ffffffff1660e01b815260040160206040518083038186803b15801561111857600080fd5b505afa15801561112c573d6000803e3d6000fd5b505050506040513d601f19601f82011682018060405250810190611150919061327d565b61118f576040517f08c379a000000000000000000000000000000000000000000000000000000000815260040161118690613a5e565b60405180910390fd5b8060008060008060008060009054906101000a900473ffffffffffffffffffffffffffffffffffffffff1673ffffffffffffffffffffffffffffffffffffffff1663c6a48d25876040518263ffffffff1660e01b81526004016111f29190613afe565b60006040518083038186803b15801561120a57600080fd5b505afa15801561121e573d6000803e3d6000fd5b505050506040513d6000823e3d601f19601f8201168201806040525081019061124791906132a6565b945094509450945094508660008060008060008060009054906101000a900473ffffffffffffffffffffffffffffffffffffffff1673ffffffffffffffffffffffffffffffffffffffff1663c6a48d25876040518263ffffffff1660e01b81526004016112b49190613afe565b60006040518083038186803b1580156112cc57600080fd5b505afa1580156112e0573d6000803e3d6000fd5b505050506040513d6000823e3d601f19601f8201168201806040525081019061130991906132a6565b94509450945094509450600160ff168460ff161461135c576040517f08c379a000000000000000000000000000000000000000000000000000000000815260040161135390613a3e565b60405180910390fd5b60008054906101000a900473ffffffffffffffffffffffffffffffffffffffff1673ffffffffffffffffffffffffffffffffffffffff166108fc6003549081150290604051600060405180830381858888f193505050501580156113c4573d6000803e3d6000fd5b5060008054906101000a900473ffffffffffffffffffffffffffffffffffffffff1673ffffffffffffffffffffffffffffffffffffffff16637a33bb44338f6040518363ffffffff1660e01b81526004016114209291906138f1565b600060405180830381600087803b15801561143a57600080fd5b505af115801561144e573d6000803e3d6000fd5b505050507f594816dd252ff1c0ad29b5fa0772338502f82c68033071dc22c736db5be51905338e6040516114839291906138f1565b60405180910390a160006114a260035434612b9590919063ffffffff16565b90503373ffffffffffffffffffffffffffffffffffffffff166108fc829081150290604051600060405180830381858888f193505050501580156114ea573d6000803e3d6000fd5b505050505050505050505050505050565b60008054906101000a900473ffffffffffffffffffffffffffffffffffffffff1673ffffffffffffffffffffffffffffffffffffffff1663cd905dff6040518163ffffffff1660e01b815260040160206040518083038186803b15801561156157600080fd5b505afa158015611575573d6000803e3d6000fd5b505050506040513d601f19601f82011682018060405250810190611599919061327d565b6115d8576040517f08c379a00000000000000000000000000000000000000000000000000000000081526004016115cf90613a5e565b60405180910390fd5b3360008060008054906101000a900473ffffffffffffffffffffffffffffffffffffffff1673ffffffffffffffffffffffffffffffffffffffff1663e1de0489846040518263ffffffff1660e01b81526004016116359190613823565b604080518083038186803b15801561164c57600080fd5b505afa158015611660573d6000803e3d6000fd5b505050506040513d601f19601f8201168201806040525081019061168491906133db565b915091503360008060008054906101000a900473ffffffffffffffffffffffffffffffffffffffff1673ffffffffffffffffffffffffffffffffffffffff1663e1de0489846040518263ffffffff1660e01b81526004016116e59190613823565b604080518083038186803b1580156116fc57600080fd5b505afa158015611710573d6000803e3d6000fd5b505050506040513d601f19601f8201168201806040525081019061173491906133db565b91509150600115158115151461177f576040517f08c379a0000000000000000000000000000000000000000000000000000000008152600401611776906139fe565b60405180910390fd5b86336117d281600560008573ffffffffffffffffffffffffffffffffffffffff1673ffffffffffffffffffffffffffffffffffffffff168152602001908152602001600020612bab90919063ffffffff16565b15611812576040517f08c379a000000000000000000000000000000000000000000000000000000000815260040161180990613ade565b60405180910390fd5b60008060009054906101000a900473ffffffffffffffffffffffffffffffffffffffff1673ffffffffffffffffffffffffffffffffffffffff16637f9e18086040518163ffffffff1660e01b815260040160206040518083038186803b15801561187b57600080fd5b505afa15801561188f573d6000803e3d6000fd5b505050506040513d601f19601f820116820180604052508101906118b391906133b2565b9050600260009054906101000a900460ff1660ff168110156119965760008054906101000a900473ffffffffffffffffffffffffffffffffffffffff1673ffffffffffffffffffffffffffffffffffffffff166369ec5ddd8b6040518263ffffffff1660e01b81526004016119289190613823565b600060405180830381600087803b15801561194257600080fd5b505af1158015611956573d6000803e3d6000fd5b505050507f89a6354fb229eda6cbc28306798727b4d524818d2c375220bc3f360f24cffaca8a6040516119899190613823565b60405180910390a1611c0d565b6119e733600560008d73ffffffffffffffffffffffffffffffffffffffff1673ffffffffffffffffffffffffffffffffffffffff168152602001908152602001600020612bdb90919063ffffffff16565b506000611a31600560008d73ffffffffffffffffffffffffffffffffffffffff1673ffffffffffffffffffffffffffffffffffffffff168152602001908152602001600020612c0b565b905081611a59600260019054906101000a900460ff1660ff1683612c2090919063ffffffff16565b1015611aa0577fa073c9aa7075a739b79fe908839febc1295519340040846c678f39d711b9329060008284604051611a9393929190613987565b60405180910390a1611c0b565b60008054906101000a900473ffffffffffffffffffffffffffffffffffffffff1673ffffffffffffffffffffffffffffffffffffffff166369ec5ddd8c6040518263ffffffff1660e01b8152600401611af99190613823565b600060405180830381600087803b158015611b1357600080fd5b505af1158015611b27573d6000803e3d6000fd5b50505050600560008c73ffffffffffffffffffffffffffffffffffffffff1673ffffffffffffffffffffffffffffffffffffffff168152602001908152602001600020600080820160008082016000611b809190612e8e565b505050507fa073c9aa7075a739b79fe908839febc1295519340040846c678f39d711b93290600182611bbc600186612c3690919063ffffffff16565b604051611bcb93929190613987565b60405180910390a17f89a6354fb229eda6cbc28306798727b4d524818d2c375220bc3f360f24cffaca8b604051611c029190613823565b60405180910390a15b505b50505050505050505050565b8460ff16600860003373ffffffffffffffffffffffffffffffffffffffff1673ffffffffffffffffffffffffffffffffffffffff168152602001908152602001600020600101600060038110611c98577f4e487b7100000000000000000000000000000000000000000000000000000000600052603260045260246000fd5b602091828204019190069054906101000a900460ff1660ff161480611d5257508460ff16600860003373ffffffffffffffffffffffffffffffffffffffff1673ffffffffffffffffffffffffffffffffffffffff168152602001908152602001600020600101600160038110611d37577f4e487b7100000000000000000000000000000000000000000000000000000000600052603260045260246000fd5b602091828204019190069054906101000a900460ff1660ff16145b80611df257508460ff16600860003373ffffffffffffffffffffffffffffffffffffffff1673ffffffffffffffffffffffffffffffffffffffff168152602001908152602001600020600101600260038110611dd7577f4e487b7100000000000000000000000000000000000000000000000000000000600052603260045260246000fd5b602091828204019190069054906101000a900460ff1660ff16145b611e31576040517f08c379a0000000000000000000000000000000000000000000000000000000008152600401611e2890613abe565b60405180910390fd5b600085858585604051602001611e4a94939291906137d9565b6040516020818303038152906040528051906020012090506006600082815260200190815260200160002060000160149054906101000a900460ff16611ec5576040517f08c379a0000000000000000000000000000000000000000000000000000000008152600401611ebc906139be565b60405180910390fd5b6006600082815260200190815260200160002060010160008360ff1660ff168152602001908152602001600020339080600181540180825580915050600190039060005260206000200160009091909190916101000a81548173ffffffffffffffffffffffffffffffffffffffff021916908373ffffffffffffffffffffffffffffffffffffffff1602179055507f43c853095c2752648493c88b4baac4d580d2594ffb00c6f1d4242d844514f78385858585604051611f8894939291906138a5565b60405180910390a160036006600083815260200190815260200160002060010160008460ff1660ff1681526020019081526020016000208054905010612012577fe23f5229de535c091e3b7bec2665f5d698192d3b31393066e8987b7a05076b6c85858585604051611ffd94939291906138a5565b60405180910390a161201185858585612267565b5b505050505050565b60008060009054906101000a900473ffffffffffffffffffffffffffffffffffffffff1673ffffffffffffffffffffffffffffffffffffffff1663cd905dff6040518163ffffffff1660e01b815260040160206040518083038186803b15801561208357600080fd5b505afa158015612097573d6000803e3d6000fd5b505050506040513d601f19601f820116820180604052508101906120bb919061327d565b905090565b6000600260019054906101000a900460ff16905090565b6000600260009054906101000a900460ff16905090565b60008060008360008060008054906101000a900473ffffffffffffffffffffffffffffffffffffffff1673ffffffffffffffffffffffffffffffffffffffff1663e1de0489846040518263ffffffff1660e01b81526004016121509190613823565b604080518083038186803b15801561216757600080fd5b505afa15801561217b573d6000803e3d6000fd5b505050506040513d601f19601f8201168201806040525081019061219f91906133db565b9150915060008060008054906101000a900473ffffffffffffffffffffffffffffffffffffffff1673ffffffffffffffffffffffffffffffffffffffff1663e1de04898a6040518263ffffffff1660e01b81526004016121ff9190613823565b604080518083038186803b15801561221657600080fd5b505afa15801561222a573d6000803e3d6000fd5b505050506040513d601f19601f8201168201806040525081019061224e91906133db565b9150915088975081965080955050505050509193909250565b60008060009054906101000a900473ffffffffffffffffffffffffffffffffffffffff1673ffffffffffffffffffffffffffffffffffffffff16639cb1be978686866040518463ffffffff1660e01b81526004016122c793929190613867565b60206040518083038186803b1580156122df57600080fd5b505afa1580156122f3573d6000803e3d6000fd5b505050506040513d601f19601f8201168201806040525081019061231791906133b2565b905060008054906101000a900473ffffffffffffffffffffffffffffffffffffffff1673ffffffffffffffffffffffffffffffffffffffff1663caab72c282846040518363ffffffff1660e01b8152600401612374929190613b42565b600060405180830381600087803b15801561238e57600080fd5b505af11580156123a2573d6000803e3d6000fd5b50505050601460ff168260ff1614156126965760008060009054906101000a900473ffffffffffffffffffffffffffffffffffffffff1673ffffffffffffffffffffffffffffffffffffffff1663fa975a4d836040518263ffffffff1660e01b81526004016124119190613afe565b60006040518083038186803b15801561242957600080fd5b505afa15801561243d573d6000803e3d6000fd5b505050506040513d6000823e3d601f19601f82011682018060405250810190612466919061323c565b905060005b81518110156126935760008060009054906101000a900473ffffffffffffffffffffffffffffffffffffffff1673ffffffffffffffffffffffffffffffffffffffff1663369b91438484815181106124ec577f4e487b7100000000000000000000000000000000000000000000000000000000600052603260045260246000fd5b60200260200101516040518263ffffffff1660e01b81526004016125109190613afe565b60606040518083038186803b15801561252857600080fd5b505afa15801561253c573d6000803e3d6000fd5b505050506040513d601f19601f8201168201806040525081019061256091906131ed565b5091505060006125af600460019054906101000a900460ff1660ff166125a1600460009054906101000a900460ff1660ff1685612c2090919063ffffffff16565b612c4c90919063ffffffff16565b905060008054906101000a900473ffffffffffffffffffffffffffffffffffffffff1673ffffffffffffffffffffffffffffffffffffffff1663dfd4fd94858581518110612626577f4e487b7100000000000000000000000000000000000000000000000000000000600052603260045260246000fd5b6020026020010151836040518363ffffffff1660e01b815260040161264c929190613b19565b600060405180830381600087803b15801561266657600080fd5b505af115801561267a573d6000803e3d6000fd5b505050505050808061268b90613e8f565b91505061246b565b50505b5050505050565b6000600460009054906101000a900460ff16905090565b80600460006101000a81548160ff021916908360ff16021790555050565b60006126dd33612c62565b90506000818585856040516020016126f894939291906137d9565b6040516020818303038152906040528051906020012090506000600660008381526020019081526020016000209050338160000160006101000a81548173ffffffffffffffffffffffffffffffffffffffff021916908373ffffffffffffffffffffffffffffffffffffffff16021790555060018160000160146101000a81548160ff0219169083151502179055507f3ed01f2c3fc24c6b329d931e35b03e390d23497d22b3f90e15b600343e93df11838787876040516127bc9493929190613b86565b60405180910390a1505050505050565b6127d4612e6c565b6127dd82612c62565b81600060038110612817577f4e487b7100000000000000000000000000000000000000000000000000000000600052603260045260246000fd5b602002019060ff16908160ff168152505080600060038110612862577f4e487b7100000000000000000000000000000000000000000000000000000000600052603260045260246000fd5b6020020151816001600381106128a1577f4e487b7100000000000000000000000000000000000000000000000000000000600052603260045260246000fd5b602002019060ff16908160ff16815250505b806000600381106128ed577f4e487b7100000000000000000000000000000000000000000000000000000000600052603260045260246000fd5b602002015160ff168160016003811061292f577f4e487b7100000000000000000000000000000000000000000000000000000000600052603260045260246000fd5b602002015160ff1614156129965761294682612c62565b81600160038110612980577f4e487b7100000000000000000000000000000000000000000000000000000000600052603260045260246000fd5b602002019060ff16908160ff16815250506128b3565b806001600381106129d0577f4e487b7100000000000000000000000000000000000000000000000000000000600052603260045260246000fd5b602002015181600260038110612a0f577f4e487b7100000000000000000000000000000000000000000000000000000000600052603260045260246000fd5b602002019060ff16908160ff16815250505b80600060038110612a5b577f4e487b7100000000000000000000000000000000000000000000000000000000600052603260045260246000fd5b602002015160ff1681600260038110612a9d577f4e487b7100000000000000000000000000000000000000000000000000000000600052603260045260246000fd5b602002015160ff161480612b32575080600160038110612ae6577f4e487b7100000000000000000000000000000000000000000000000000000000600052603260045260246000fd5b602002015160ff1681600260038110612b28577f4e487b7100000000000000000000000000000000000000000000000000000000600052603260045260246000fd5b602002015160ff16145b15612b9057612b4082612c62565b81600260038110612b7a577f4e487b7100000000000000000000000000000000000000000000000000000000600052603260045260246000fd5b602002019060ff16908160ff1681525050612a21565b919050565b60008183612ba39190613d89565b905092915050565b6000612bd3836000018373ffffffffffffffffffffffffffffffffffffffff1660001b612d2e565b905092915050565b6000612c03836000018373ffffffffffffffffffffffffffffffffffffffff1660001b612d51565b905092915050565b6000612c1982600001612dc1565b9050919050565b60008183612c2e9190613d2f565b905092915050565b60008183612c449190613ca8565b905092915050565b60008183612c5a9190613cfe565b905092915050565b600080600a905060008160ff166007600081819054906101000a900460ff1680929190612c8e90613ed8565b91906101000a81548160ff021916908360ff16021790555060ff1643612cb49190613d89565b4085604051602001612cc79291906137ad565b6040516020818303038152906040528051906020012060001c612cea9190613f4c565b905060fa600760009054906101000a900460ff1660ff161115612d24576000600760006101000a81548160ff021916908360ff1602179055505b8092505050919050565b600080836001016000848152602001908152602001600020541415905092915050565b6000612d5d8383612d2e565b612db6578260000182908060018154018082558091505060019003906000526020600020016000909190919091505582600001805490508360010160008481526020019081526020016000208190555060019050612dbb565b600090505b92915050565b600081600001805490509050919050565b826003601f01602090048101928215612e5b5791602002820160005b83821115612e2c57835183826101000a81548160ff021916908360ff1602179055509260200192600101602081600001049283019260010302612dee565b8015612e595782816101000a81549060ff0219169055600101602081600001049283019260010302612e2c565b505b509050612e689190612eaf565b5090565b6040518060600160405280600390602082028036833780820191505090505090565b5080546000825590600052602060002090810190612eac9190612ecc565b50565b5b80821115612ec8576000816000905550600101612eb0565b5090565b5b80821115612ee5576000816000905550600101612ecd565b5090565b6000612efc612ef784613bf7565b613bd2565b90508083825260208201905082856020860282011115612f1b57600080fd5b60005b85811015612f4b5781612f3188826130a3565b845260208401935060208301925050600181019050612f1e565b5050509392505050565b6000612f68612f6384613c23565b613bd2565b905082815260208101848484011115612f8057600080fd5b612f8b848285613e1c565b509392505050565b6000612fa6612fa184613c23565b613bd2565b905082815260208101848484011115612fbe57600080fd5b612fc9848285613e2b565b509392505050565b600081359050612fe0816142ff565b92915050565b600081519050612ff5816142ff565b92915050565b600082601f83011261300c57600080fd5b815161301c848260208601612ee9565b91505092915050565b60008151905061303481614316565b92915050565b600082601f83011261304b57600080fd5b813561305b848260208601612f55565b91505092915050565b600082601f83011261307557600080fd5b8151613085848260208601612f93565b91505092915050565b60008135905061309d8161432d565b92915050565b6000815190506130b28161432d565b92915050565b6000813590506130c781614344565b92915050565b6000815190506130dc81614344565b92915050565b6000602082840312156130f457600080fd5b600061310284828501612fd1565b91505092915050565b60008060006060848603121561312057600080fd5b600061312e86828701612fd1565b935050602084013567ffffffffffffffff81111561314b57600080fd5b6131578682870161303a565b92505060406131688682870161308e565b9150509250925092565b6000806000806080858703121561318857600080fd5b600061319687828801612fd1565b945050602085013567ffffffffffffffff8111156131b357600080fd5b6131bf8782880161303a565b93505060406131d08782880161308e565b92505060606131e1878288016130b8565b91505092959194509250565b60008060006060848603121561320257600080fd5b600061321086828701612fe6565b9350506020613221868287016130a3565b9250506040613232868287016130cd565b9150509250925092565b60006020828403121561324e57600080fd5b600082015167ffffffffffffffff81111561326857600080fd5b61327484828501612ffb565b91505092915050565b60006020828403121561328f57600080fd5b600061329d84828501613025565b91505092915050565b600080600080600060a086880312156132be57600080fd5b60006132cc88828901613025565b95505060206132dd888289016130cd565b94505060406132ee888289016130a3565b93505060606132ff88828901612fe6565b925050608086015167ffffffffffffffff81111561331c57600080fd5b61332888828901613064565b9150509295509295909350565b6000806040838503121561334857600080fd5b600083013567ffffffffffffffff81111561336257600080fd5b61336e8582860161303a565b925050602061337f8582860161308e565b9150509250929050565b60006020828403121561339b57600080fd5b60006133a98482850161308e565b91505092915050565b6000602082840312156133c457600080fd5b60006133d2848285016130a3565b91505092915050565b600080604083850312156133ee57600080fd5b60006133fc858286016130a3565b925050602061340d85828601613025565b9150509250929050565b60006020828403121561342957600080fd5b6000613437848285016130b8565b91505092915050565b600080600080600060a0868803121561345857600080fd5b6000613466888289016130b8565b955050602061347788828901612fd1565b945050604086013567ffffffffffffffff81111561349457600080fd5b6134a08882890161303a565b93505060606134b18882890161308e565b92505060806134c2888289016130b8565b9150509295509295909350565b60006134db8383613778565b60208301905092915050565b6134f081613dbd565b82525050565b61350761350282613dbd565b613f02565b82525050565b61351681613c5e565b6135208184613c81565b925061352b82613c54565b8060005b8381101561355c57815161354387826134cf565b965061354e83613c74565b92505060018101905061352f565b505050505050565b61356d81613dcf565b82525050565b61358461357f82613ddb565b613f14565b82525050565b600061359582613c69565b61359f8185613c8c565b93506135af818560208601613e2b565b6135b88161400a565b840191505092915050565b60006135ce82613c69565b6135d88185613c9d565b93506135e8818560208601613e2b565b80840191505092915050565b6000613601602f83613c8c565b915061360c82614035565b604082019050919050565b6000613624601883613c8c565b915061362f82614084565b602082019050919050565b6000613647605683613c8c565b9150613652826140ad565b606082019050919050565b600061366a601b83613c8c565b915061367582614122565b602082019050919050565b600061368d602583613c8c565b91506136988261414b565b604082019050919050565b60006136b0602583613c8c565b91506136bb8261419a565b604082019050919050565b60006136d3602383613c8c565b91506136de826141e9565b604082019050919050565b60006136f6601c83613c8c565b915061370182614238565b602082019050919050565b6000613719602383613c8c565b915061372482614261565b604082019050919050565b600061373c603d83613c8c565b9150613747826142b0565b604082019050919050565b61375b81613e05565b82525050565b61377261376d82613e05565b613f30565b82525050565b61378181613e0f565b82525050565b61379081613e0f565b82525050565b6137a76137a282613e0f565b613f3a565b82525050565b60006137b98285613573565b6020820191506137c982846134f6565b6014820191508190509392505050565b60006137e58287613796565b6001820191506137f582866134f6565b60148201915061380582856135c3565b91506138118284613761565b60208201915081905095945050505050565b600060208201905061383860008301846134e7565b92915050565b600060408201905061385360008301856134e7565b6138606020830184613564565b9392505050565b600060608201905061387c60008301866134e7565b818103602083015261388e818561358a565b905061389d6040830184613752565b949350505050565b60006080820190506138ba60008301876134e7565b81810360208301526138cc818661358a565b90506138db6040830185613752565b6138e86060830184613787565b95945050505050565b600060408201905061390660008301856134e7565b6139136020830184613752565b9392505050565b600060608201905061392f60008301866134e7565b61393c6020830185613752565b6139496040830184613564565b949350505050565b6000606082019050613966600083018461350d565b92915050565b60006020820190506139816000830184613564565b92915050565b600060608201905061399c6000830186613564565b6139a96020830185613752565b6139b66040830184613752565b949350505050565b600060208201905081810360008301526139d7816135f4565b9050919050565b600060208201905081810360008301526139f781613617565b9050919050565b60006020820190508181036000830152613a178161363a565b9050919050565b60006020820190508181036000830152613a378161365d565b9050919050565b60006020820190508181036000830152613a5781613680565b9050919050565b60006020820190508181036000830152613a77816136a3565b9050919050565b60006020820190508181036000830152613a97816136c6565b9050919050565b60006020820190508181036000830152613ab7816136e9565b9050919050565b60006020820190508181036000830152613ad78161370c565b9050919050565b60006020820190508181036000830152613af78161372f565b9050919050565b6000602082019050613b136000830184613752565b92915050565b6000604082019050613b2e6000830185613752565b613b3b6020830184613752565b9392505050565b6000604082019050613b576000830185613752565b613b646020830184613787565b9392505050565b6000602082019050613b806000830184613787565b92915050565b6000608082019050613b9b6000830187613787565b613ba860208301866134e7565b8181036040830152613bba818561358a565b9050613bc96060830184613752565b95945050505050565b6000613bdc613bed565b9050613be88282613e5e565b919050565b6000604051905090565b600067ffffffffffffffff821115613c1257613c11613fdb565b5b602082029050602081019050919050565b600067ffffffffffffffff821115613c3e57613c3d613fdb565b5b613c478261400a565b9050602081019050919050565b6000819050919050565b600060039050919050565b600081519050919050565b6000602082019050919050565b600081905092915050565b600082825260208201905092915050565b600081905092915050565b6000613cb382613e05565b9150613cbe83613e05565b9250827fffffffffffffffffffffffffffffffffffffffffffffffffffffffffffffffff03821115613cf357613cf2613f7d565b5b828201905092915050565b6000613d0982613e05565b9150613d1483613e05565b925082613d2457613d23613fac565b5b828204905092915050565b6000613d3a82613e05565b9150613d4583613e05565b9250817fffffffffffffffffffffffffffffffffffffffffffffffffffffffffffffffff0483118215151615613d7e57613d7d613f7d565b5b828202905092915050565b6000613d9482613e05565b9150613d9f83613e05565b925082821015613db257613db1613f7d565b5b828203905092915050565b6000613dc882613de5565b9050919050565b60008115159050919050565b6000819050919050565b600073ffffffffffffffffffffffffffffffffffffffff82169050919050565b6000819050919050565b600060ff82169050919050565b82818337600083830152505050565b60005b83811015613e49578082015181840152602081019050613e2e565b83811115613e58576000848401525b50505050565b613e678261400a565b810181811067ffffffffffffffff82111715613e8657613e85613fdb565b5b80604052505050565b6000613e9a82613e05565b91507fffffffffffffffffffffffffffffffffffffffffffffffffffffffffffffffff821415613ecd57613ecc613f7d565b5b600182019050919050565b6000613ee382613e0f565b915060ff821415613ef757613ef6613f7d565b5b600182019050919050565b6000613f0d82613f1e565b9050919050565b6000819050919050565b6000613f2982614028565b9050919050565b6000819050919050565b6000613f458261401b565b9050919050565b6000613f5782613e05565b9150613f6283613e05565b925082613f7257613f71613fac565b5b828206905092915050565b7f4e487b7100000000000000000000000000000000000000000000000000000000600052601160045260246000fd5b7f4e487b7100000000000000000000000000000000000000000000000000000000600052601260045260246000fd5b7f4e487b7100000000000000000000000000000000000000000000000000000000600052604160045260246000fd5b6000601f19601f8301169050919050565b60008160f81b9050919050565b60008160601b9050919050565b7f466c69676874206f722074696d657374616d7020646f206e6f74206d6174636860008201527f206f7261636c6520726571756573740000000000000000000000000000000000602082015250565b7f466c6967687420686173206265656e2064657061727465640000000000000000600082015250565b7f4169726c696e6520686173206e6f74207965742066756e64656420746f20417060008201527f702c207468656e2069742063616e6e6f7420636f6e73656e742072656769737460208201527f726174696f6e20746f206e6577206169726c696e657300000000000000000000604082015250565b7f4e6f74207265676973746572656420617320616e206f7261636c650000000000600082015250565b7f466c69676874206973206e6f7420617661696c61626c6520666f7220696e737560008201527f72616e6365000000000000000000000000000000000000000000000000000000602082015250565b7f436f6e74726163742069732063757272656e746c79206e6f74206f706572617460008201527f696f6e616c000000000000000000000000000000000000000000000000000000602082015250565b7f4e6f20656e6f7567682076616c756520746f2066756e6420746865206169726c60008201527f696e650000000000000000000000000000000000000000000000000000000000602082015250565b7f526567697374726174696f6e2066656520697320726571756972656400000000600082015250565b7f496e64657820646f6573206e6f74206d61746368206f7261636c65207265717560008201527f6573740000000000000000000000000000000000000000000000000000000000602082015250565b7f4775657374206169726c696e652068617320616c726561647920636f6e73656e60008201527f7420726567697374726174696f6e20746f206e6577206169726c696e65000000602082015250565b61430881613dbd565b811461431357600080fd5b50565b61431f81613dcf565b811461432a57600080fd5b50565b61433681613e05565b811461434157600080fd5b50565b61434d81613e0f565b811461435857600080fd5b5056fea264697066735822122098ddbd103a1505cead52bb157e6c2c108c7c2695ca604f13931bcbd68a9d759464736f6c63430008010033",
  "immutableReferences": {},
  "source": "// SPDX-License-Identifier: MIT\npragma solidity ^0.8.0;\n\n// It's important to avoid vulnerabilities due to numeric overflow bugs\n// OpenZeppelin's SafeMath library, when used correctly, protects agains such bugs\n// More info: https://www.nccgroup.trust/us/about-us/newsroom-and-events/blog/2018/november/smart-contract-insecurity-bad-arithmetic/\n\nimport \"../node_modules/@openzeppelin/contracts/utils/math/SafeMath.sol\";\nimport \"@openzeppelin/contracts/utils/structs/EnumerableSet.sol\";\n\n\n/************************************************** */\n/* FlightSurety Smart Contract                      */\n/************************************************** */\ncontract FlightSuretyApp {\n    using SafeMath for uint256; // Allow SafeMath functions to be called for all uint256 types (similar to \"prototype\" in Javascript)\n    using EnumerableSet for EnumerableSet.AddressSet;\n    \n    \n    /********************************************************************************************/\n    /*                                       Interface to Data Contract                         */\n    /********************************************************************************************/    \n    IFlightSuretyData model;\n\n    /********************************************************************************************/\n    /*                                       DATA VARIABLES                                     */\n    /********************************************************************************************/\n\n    // Flight status codees\n    uint8 private constant STATUS_CODE_CREATED = 1; \n    uint8 private constant STATUS_CODE_UNKNOWN = 0; \n    uint8 private constant STATUS_CODE_ON_TIME = 10;\n    uint8 private constant STATUS_CODE_LATE_AIRLINE = 20;\n    uint8 private constant STATUS_CODE_LATE_WEATHER = 30;\n    uint8 private constant STATUS_CODE_LATE_TECHNICAL = 40;\n    uint8 private constant STATUS_CODE_LATE_OTHER = 50;\n    \n    //TODO: make these configurable variables from App\n    uint256 private minAirlineFund = 10 ether;\t\t\t//Payment each registered airline must do to grant others registration\n    uint8 private minAirlineCountNoConsensus = 3; \t\t//Free of consensus airlines registration \n    uint8 private consensusProportion  = 2; \t\t\t//Airlines granted registration MULTIPLY by RATE > Total airlines registered\n    uint256 private insuranceMaxPrice = 1 ether;        //Max price for a passenger to buy flight insurance \n    uint8 private sumInsuranceNum = 1; \t\t\t\t\t//Payment plus the percentage per insurance amount. (1/2 = 50% - 1 + 0.5 = 1.5 ether)\n    uint8 private sumInsuranceDen = 2;\n\n    address private contractOwner;          \t\t\t// Account used to deploy contract\n\n\t\n\t//Data variables for consensus on new airline registration\n\tmapping(address => EnumerableSet.AddressSet) consensus;\n\n  \t// Model for responses from oracles\n    struct ResponseInfo {\n        address requester;                              // Account that requested status\n        bool isOpen;                                    // If open, oracle responses are accepted\n        mapping(uint8 => address[]) responses;          // Mapping key is the status code reported\n                                                        // This lets us group responses and identify\n                                                        // the response that majority of the oracles\n    }\n\n    // Track all oracle responses\n    // Key = hash(index, flight, timestamp)\n    mapping(bytes32 => ResponseInfo) private oracleResponses;\n \n    /********************************************************************************************/\n    /*                                       FUNCTION MODIFIERS                                 */\n    /********************************************************************************************/\n\n    // Modifiers help avoid duplication of code. They are typically used to validate something\n    // before a function is allowed to be executed.\n\n    /**\n    * @dev Modifier that requires the \"operational\" boolean variable to be \"true\"\n    *      This is used on all state changing functions to pause the contract in \n    *      the event there is an issue that needs to be fixed\n    */\n    modifier requireIsOperational() {\n        require(model.isOperational(), \"Contract is currently not operational\");  \n        _; \n    }\n\n    /**\n    * @dev Modifier that requires the \"ContractOwner\" account to be the function caller\n    */\n    modifier requireContractOwner() {\n        require(msg.sender == contractOwner, \"Caller is not contract owner\");\n        _;\n    }\n\n\t// Define a modifier that checks if the paid amount is sufficient to cover the price\n  \tmodifier fundEnough() { \n    \trequire(msg.value >= minAirlineFund, \"No enough value to fund the airline\"); \n    \t_;\n  \t}\n\n\t// Define a modifier that checks the price and refunds the remaining balance\n\tmodifier checkValue() {\n\t    _;\n\t    uint256 amountToReturn = msg.value.sub(minAirlineFund);\n\t    payable(msg.sender).transfer(amountToReturn);\n    }\n\n\n\t// Check airline is registered in DataContract\n\tmodifier airlineRegistered(address airline) {\n\t\t(uint256 id, bool hasFunded) = model.getAirline(airline);\n\t\t_;\n\t}\n\t\n\t// Check airline is registered in DataContract\t\n    modifier airlineFunded(address airline) {\n\t\t(uint256 id, bool hasFunded) = model.getAirline(airline);\n\t\trequire(hasFunded == true, \"Airline has not yet funded to App, then it cannot consent registration to new airlines\");\n\t\t_;\n    }\n    \t\n\t// Check airline is registered in DataContract    \t\n    modifier airlineNotGranted(address newAirline, address guestAirline) {\n    \trequire(!consensus[newAirline].contains(guestAirline), \"Guest airline has already consent registration to new airline\");\n    \t_;\n    }    \t\n    \n    modifier flightTimeValid(uint256 timestamp) {\n    \trequire(timestamp > block.timestamp, \"Flight has been departed\");\n    \t_;\n    }\n\t\n\tmodifier flightRegistered(uint256 flightId) {\n\t\t(bool isRegistered_, uint8 statusCode_, uint256 updatedTimestamp_, address airline_, string memory flight_) = model.getFlightById(flightId);\n\t\t_;\n\t}\n\t\n\tmodifier flightStatusToInsurance(uint256 flightId) {\n\t\t(bool isRegistered_, uint8 statusCode_, uint256 updatedTimestamp_, address airline_, string memory flight_) = model.getFlightById(flightId);\n\t\trequire(statusCode_ == STATUS_CODE_CREATED, \"Flight is not available for insurance\");\n\t\t_;\n\t\n\t}\n\t\n\tmodifier verifyMaxInsurancePrice() {\n\t    _;\n\t    uint256 amountToReturn = msg.value.sub(insuranceMaxPrice);\n\t    payable(msg.sender).transfer(amountToReturn);\t\t\n\t}\n\t\n\t\n\t\n\t\n    /********************************************************************************************/\n    /*                                       EVENTS                                             */\n    /********************************************************************************************/\n\t\n\tevent GrantConsensus(bool registered, uint256 consentCount, uint256 airlineCount); \n\tevent AirlineRegistered(address airline);\t\t\t\t\n\tevent AirlineFunded(address airline);\n\tevent AirlineHasFunded(address airline, uint256 amount);\n\tevent FlightRegistered(uint256 flightId);\n\tevent InsuranceValid(address passenger, uint256 flightId);\n\n    /********************************************************************************************/\n    /*                                       CONSTRUCTOR                                        */\n    /********************************************************************************************/\n\n    /**\n    * @dev Contract constructor\n    *\n    */\n    constructor (address dataContract) {\n        contractOwner = msg.sender;\n        model = IFlightSuretyData(dataContract);\n    }\n\n    /********************************************************************************************/\n    /*                                       UTILITY FUNCTIONS                                  */\n    /*                                       GETTERs and SETTERs                                */\n    /********************************************************************************************/\n\n    function isOperational() \n                            public \n                            view \n                            returns(bool) \n    {\n        return model.isOperational();\n    }\n\t\n\tfunction getMinAirlineFund() public view returns (uint256 minAirlineFund_) {\n\t\tminAirlineFund_ = minAirlineFund; \n\t\treturn minAirlineFund_; \n\t}\n\t\n\tfunction setMinAirlineFund(uint256 _minAirlineFund) public {\n\t\tminAirlineFund = _minAirlineFund;\n\t}\n\t\n\tfunction getMinAirlineCountNoConsensus() public view returns (uint8 minAirlineCountNoConsensus_) {\n\t\tminAirlineCountNoConsensus_ = minAirlineCountNoConsensus;\n\t\treturn minAirlineCountNoConsensus_;\n\t}\n\t\n\tfunction setMinAirlineCountNoConsensus(uint8 _minAirlineCountNoConsensus) public {\n\t\tminAirlineCountNoConsensus = _minAirlineCountNoConsensus;\n\t}\n\t\n\tfunction getConsensusProportion() public view returns(uint8 consensusProportion_) {\n\t\tconsensusProportion_ = consensusProportion;\n\t\treturn consensusProportion_;\n\t}\n\t\n\tfunction setConsensusProportion(uint8 _consensusProportion) public {\n\t\tconsensusProportion = _consensusProportion;\n\t} \n\t\n\tfunction getInsuranceMaxPrice() public view returns(uint256 insuranceMaxPrice_) {\n\t\tinsuranceMaxPrice_ = insuranceMaxPrice;\n\t\treturn(insuranceMaxPrice_);\n\t}\n\t\n\tfunction setInsuranceMaxPrice(uint256 _insuranceMaxPrice) public {\n\t\tinsuranceMaxPrice = _insuranceMaxPrice;\n\t}  \n\t\n\tfunction getSumInsuranceNum() public view returns(uint8 sumInsuranceNum_) {\n\t\tsumInsuranceNum_ = sumInsuranceNum;\n\t\treturn(sumInsuranceNum_);\n\t}\n\t\n\tfunction setSumInsuranceNum(uint8 _sumInsuranceNum) public {\n\t\tsumInsuranceNum = _sumInsuranceNum;\n\t} \n\t\n\tfunction getSumInsuranceDen() public view returns(uint8 sumInsuranceDen_) {\n\t\tsumInsuranceDen_ = sumInsuranceDen;\n\t\treturn(sumInsuranceDen_);\n\t}\n\tfunction setSumInsuranceDen(uint8 _sumInsuranceDen) public {\n\t\tsumInsuranceDen = _sumInsuranceDen;\n\t}\n\t\n\t\n    /********************************************************************************************/\n    /*                                     SMART CONTRACT FUNCTIONS                             */\n    /********************************************************************************************/\n\n  \n   /**\n    * @dev Add an airline to the registration queue\n    *\n    */   \n    function registerAirline(address newAirline)\n\t    external requireIsOperational\n    \tairlineRegistered(msg.sender)\n    \tairlineFunded(msg.sender)\n    \tairlineNotGranted(newAirline, msg.sender)    \t\n    {\n    \tuint256 airlinesCount = model.getAirlineCount();\n    \tif(airlinesCount < minAirlineCountNoConsensus) {\n    \t\tmodel.createAirline(newAirline);\n    \t\temit AirlineRegistered(newAirline);\n    \t} else {\n    \t\tconsensus[newAirline].add(msg.sender);\n    \t\tuint256 consentCount = consensus[newAirline].length();\n    \t\tif(consentCount.mul(consensusProportion) < airlinesCount) {\n    \t\t\temit GrantConsensus(false, consentCount, airlinesCount);\n    \t\t} else {\n    \t\t\tmodel.createAirline(newAirline);\n    \t\t\tdelete consensus[newAirline];\n    \t\t\temit GrantConsensus(true, consentCount, airlinesCount.add(1)); \n\t    \t\temit AirlineRegistered(newAirline);\t\t\t\t\n    \t\t}\n    \t}\n    }\n    \n    function getAirline(address _airline) \n    \tpublic view \n    \tairlineRegistered(_airline)\n    \treturns(address airline_, uint256 id_, bool hasFunded_) \n    {\n    \t(uint256 id, bool hasFunded) = model.getAirline(_airline);\n    \tairline_ = \t_airline;\n    \tid_ = id;\n    \thasFunded_ = hasFunded;\n    \treturn(airline_, id_, hasFunded_);\n    }\n    \n    function fundAirline() external \n    \tpayable \n    \trequireIsOperational\n    \tairlineRegistered(msg.sender)\n    \tfundEnough checkValue\n    {\n    \tpayable(address(model)).transfer(minAirlineFund);\n    \tmodel.setAirlineHasFunded(msg.sender, true);\n    \temit AirlineHasFunded(msg.sender, minAirlineFund);\n    }\n    \n\n   /**\n    * @dev Register a future flight for insuring.\n    *\n    */  \n    function registerFlight(string memory _flight, uint256 _timestamp) \n    \texternal requireIsOperational\n    \tairlineRegistered(msg.sender)\n    \tairlineFunded(msg.sender)\n    \tflightTimeValid(_timestamp)\n    {\n\t\tuint256 flightId = model.createFlight(msg.sender, _flight, _timestamp, STATUS_CODE_CREATED);\n\t\temit FlightRegistered(flightId);\t\n    }\n    \n    function buyInsurance(uint256 _flightId) external payable requireIsOperational\n    \tflightRegistered(_flightId)\n    \tflightStatusToInsurance(_flightId)\n    \tverifyMaxInsurancePrice    \t\n    {\n    \tpayable(address(model)).transfer(insuranceMaxPrice);\n    \tmodel.createInsurance(msg.sender, _flightId);\n    \temit InsuranceValid(msg.sender, _flightId);    \t\n    }\n    \n    function withdrawal(uint256 amount) external requireIsOperational {\n    \tmodel.pay(msg.sender, amount);\t\n    }\n    \n   /**\n    * @dev Called after oracle has updated flight status\n    *\n    */  \n    function processFlightStatus(address airline,\n\t\tstring memory flight,\n        uint256 timestamp,\n        uint8 statusCode)\n\t\tpublic\n    {\n    \tuint256 flightId = model.getFlightId(airline, flight, timestamp);\n    \tmodel.setFlightStatus(flightId, statusCode);\n    \t\n    \tif(statusCode == STATUS_CODE_LATE_AIRLINE) {\n    \t\tuint256[] memory insuranceIds = model.getInsurancesByFlightId(flightId);\n    \t\tfor(uint256 i = 0; i < insuranceIds.length; i++) {\n    \t\t\t(, uint256 payment,) = model.getInsuranceById(insuranceIds[i]);\n    \t\t\tuint256 amount = payment.mul(sumInsuranceNum).div(sumInsuranceDen);\n    \t\t\tmodel.creditInsurees(insuranceIds[i], amount);\n    \t\t}\n    \t}\n    }\n\n\n    // Generate a request for oracles to fetch flight information\n    function fetchFlightStatus(address airline, string memory flight, uint256 timestamp)\n\t    external\n    {\n        uint8 index = getRandomIndex(msg.sender);\n\n        // Generate a unique key for storing the request\n        bytes32 key = keccak256(abi.encodePacked(index, airline, flight, timestamp));\n        \n        ResponseInfo storage response = oracleResponses[key];\n\t\tresponse.requester = msg.sender;\n\t\tresponse.isOpen = true;\n\n        emit OracleRequest(index, airline, flight, timestamp);\n    } \n\n\n// region ORACLE MANAGEMENT\n\n    // Incremented to add pseudo-randomness at various points\n    uint8 private nonce = 0;    \n\n    // Fee to be paid when registering oracle\n    uint256 public constant REGISTRATION_FEE = 1 ether;\n\n    // Number of oracles that must respond for valid status\n    uint256 private constant MIN_RESPONSES = 3;\n\n\n    struct Oracle {\n        bool isRegistered;\n        uint8[3] indexes;        \n    }\n\n    // Track all registered oracles\n    mapping(address => Oracle) private oracles;\n\n    // Event fired each time an oracle submits a response\n    event FlightStatusInfo(address airline, string flight, uint256 timestamp, uint8 status);\n\n    event OracleReport(address airline, string flight, uint256 timestamp, uint8 status);\n\n    // Event fired when flight status request is submitted\n    // Oracles track this and if they have a matching index\n    // they fetch data and submit a response\n    event OracleRequest(uint8 index, address airline, string flight, uint256 timestamp);\n\n\n    // Register an oracle with the contract\n    function registerOracle()\n        external\n        payable\n    {\n        // Require registration fee\n        require(msg.value >= REGISTRATION_FEE, \"Registration fee is required\");\n        uint8[3] memory indexes = generateIndexes(msg.sender);\n        oracles[msg.sender] = Oracle({\n                                        isRegistered: true,\n                                        indexes: indexes\n                                    });\n    }\n\n    function getMyIndexes()\n\t    view\n\t    external\n\t    returns(uint8[3] memory myIndexes)\n    {\n        require(oracles[msg.sender].isRegistered, \"Not registered as an oracle\");\n        return oracles[msg.sender].indexes;\n    }\n\n    // Called by oracle when a response is available to an outstanding request\n    // For the response to be accepted, there must be a pending request that is open\n    // and matches one of the three Indexes randomly assigned to the oracle at the\n    // time of registration (i.e. uninvited oracles are not welcome)\n    function submitOracleResponse\n                        (\n                            uint8 index,\n                            address airline,\n                            string memory flight,\n                            uint256 timestamp,\n                            uint8 statusCode\n                        )\n                        external\n    {\n        require((oracles[msg.sender].indexes[0] == index) || (oracles[msg.sender].indexes[1] == index) || (oracles[msg.sender].indexes[2] == index), \"Index does not match oracle request\");\n\n        bytes32 key = keccak256(abi.encodePacked(index, airline, flight, timestamp)); \n        require(oracleResponses[key].isOpen, \"Flight or timestamp do not match oracle request\");\n\n        oracleResponses[key].responses[statusCode].push(msg.sender);\n\n        // Information isn't considered verified until at least MIN_RESPONSES\n        // oracles respond with the *** same *** information\n        emit OracleReport(airline, flight, timestamp, statusCode);\n        if (oracleResponses[key].responses[statusCode].length >= MIN_RESPONSES) {\n            emit FlightStatusInfo(airline, flight, timestamp, statusCode);\n            // Handle flight status as appropriate\n            processFlightStatus(airline, flight, timestamp, statusCode);\n        }\n    }\n\n\n    function getFlightKey(address airline, string memory flight, uint256 timestamp)\n\t    pure\n\t    internal\n\t    returns(bytes32) \n    {\n        return keccak256(abi.encodePacked(airline, flight, timestamp));\n    }\n\n    // Returns array of three non-duplicating integers from 0-9\n    function generateIndexes(address account)\n\t    internal\n\t    returns(uint8[3] memory indexes)\n    {\n        //uint8[3] memory indexes;\n        indexes[0] = getRandomIndex(account);\n        \n        indexes[1] = indexes[0];\n        while(indexes[1] == indexes[0]) {\n            indexes[1] = getRandomIndex(account);\n        }\n\n        indexes[2] = indexes[1];\n        while((indexes[2] == indexes[0]) || (indexes[2] == indexes[1])) {\n            indexes[2] = getRandomIndex(account);\n        }\n\n        return indexes;\n    }\n\n    // Returns array of three non-duplicating integers from 0-9\n    function getRandomIndex(address account)\n        internal\n        returns (uint8)\n    {\n        uint8 maxValue = 10;\n\n        // Pseudo random number...the incrementing nonce adds variation\n        uint8 random = uint8(uint256(keccak256(abi.encodePacked(blockhash(block.number - nonce++), account))) % maxValue);\n\n        if (nonce > 250) {\n            nonce = 0;  // Can only fetch blockhashes for last 256 blocks so we adapt\n        }\n\n        return random;\n    }\n\n// endregion\n\n}   \n\ninterface IFlightSuretyData{\n\tfunction isOperational() external view returns(bool);\n\n\tfunction createAirline(address newAirline) external;\n\tfunction getAirline(address airline) external view returns(uint256, bool) ;\n\tfunction getAirlineCount() external view returns(uint256); \n\tfunction setAirlineHasFunded(address airline, bool hasFunded) external;\n\t \n\tfunction createFlight(address _airline, string memory _flight, uint256 _timestamp, uint8 _statusCode) external returns(uint256 flightId);\n\tfunction getFlightById(uint256 _flightId) external view returns(bool isRegistered_, uint8 statusCode_, uint256 updatedTimestamp_, address airline_, string memory flight_);\t\n\tfunction createInsurance(address passenger, uint256 flightId) external;\n\tfunction getFlightId(address _airline, string memory _flight, uint256 _timestamp) external view returns(uint256 flightId_);\n\tfunction setFlightStatus(uint256 flightId, uint8 statusCode) external;\n\t\n\tfunction getInsurancesByFlightId(uint256 _flightId) external view returns(uint256[] memory insurances_);\n\tfunction getInsuranceById(uint256 insuranceId) external view returns(address passenger_, uint256 payment_, uint8 status_);\n\tfunction creditInsurees(uint256 _insuranceId, uint256 amount) external;\n\tfunction pay(address passenger, uint256 amount) external;\n}\n",
  "sourcePath": "/Users/luischapa/Ethereum/project-4-FlightSurety/contracts/FlightSuretyApp.sol",
  "compiler": {
    "name": "solc",
    "version": "0.8.1+commit.df193b15.Emscripten.clang"
  },
  "schemaVersion": "3.4.2",
  "updatedAt": "2021-10-04T23:22:23.189Z",
  "networkType": "ethereum",
  "devdoc": {
    "kind": "dev",
    "methods": {
      "constructor": {
        "details": "Contract constructor"
      },
      "processFlightStatus(address,string,uint256,uint8)": {
        "details": "Called after oracle has updated flight status"
      },
      "registerAirline(address)": {
        "details": "Add an airline to the registration queue"
      },
      "registerFlight(string,uint256)": {
        "details": "Register a future flight for insuring."
      }
    },
    "version": 1
  },
  "userdoc": {
    "kind": "user",
    "methods": {},
    "version": 1
  }
}