{
  "contractName": "FlightSuretyData",
  "abi": [
    {
      "inputs": [],
      "stateMutability": "payable",
      "type": "constructor",
      "payable": true
    },
    {
      "stateMutability": "payable",
      "type": "fallback",
      "payable": true
    },
    {
      "inputs": [],
      "name": "isOperational",
      "outputs": [
        {
          "internalType": "bool",
          "name": "",
          "type": "bool"
        }
      ],
      "stateMutability": "view",
      "type": "function",
      "constant": true
    },
    {
      "inputs": [
        {
          "internalType": "bool",
          "name": "mode",
          "type": "bool"
        }
      ],
      "name": "setOperatingStatus",
      "outputs": [],
      "stateMutability": "nonpayable",
      "type": "function"
    },
    {
      "inputs": [
        {
          "internalType": "address",
          "name": "caller",
          "type": "address"
        }
      ],
      "name": "authorizeContract",
      "outputs": [],
      "stateMutability": "nonpayable",
      "type": "function"
    },
    {
      "inputs": [
        {
          "internalType": "address",
          "name": "caller",
          "type": "address"
        }
      ],
      "name": "deauthorizeContract",
      "outputs": [],
      "stateMutability": "nonpayable",
      "type": "function"
    },
    {
      "inputs": [
        {
          "internalType": "address",
          "name": "newAirline",
          "type": "address"
        }
      ],
      "name": "createAirline",
      "outputs": [],
      "stateMutability": "nonpayable",
      "type": "function"
    },
    {
      "inputs": [
        {
          "internalType": "address",
          "name": "_airline",
          "type": "address"
        }
      ],
      "name": "getAirline",
      "outputs": [
        {
          "internalType": "uint256",
          "name": "id",
          "type": "uint256"
        },
        {
          "internalType": "bool",
          "name": "hasFunded",
          "type": "bool"
        }
      ],
      "stateMutability": "view",
      "type": "function",
      "constant": true
    },
    {
      "inputs": [],
      "name": "getAirlineCount",
      "outputs": [
        {
          "internalType": "uint256",
          "name": "airlineCount_",
          "type": "uint256"
        }
      ],
      "stateMutability": "view",
      "type": "function",
      "constant": true
    },
    {
      "inputs": [
        {
          "internalType": "address",
          "name": "airline",
          "type": "address"
        },
        {
          "internalType": "bool",
          "name": "hasFunded",
          "type": "bool"
        }
      ],
      "name": "setAirlineHasFunded",
      "outputs": [],
      "stateMutability": "nonpayable",
      "type": "function"
    },
    {
      "inputs": [
        {
          "internalType": "address",
          "name": "_airline",
          "type": "address"
        },
        {
          "internalType": "string",
          "name": "_flight",
          "type": "string"
        },
        {
          "internalType": "uint256",
          "name": "_timestamp",
          "type": "uint256"
        },
        {
          "internalType": "uint8",
          "name": "_statusCode",
          "type": "uint8"
        }
      ],
      "name": "createFlight",
      "outputs": [
        {
          "internalType": "uint256",
          "name": "flightId_",
          "type": "uint256"
        }
      ],
      "stateMutability": "nonpayable",
      "type": "function"
    },
    {
      "inputs": [
        {
          "internalType": "uint256",
          "name": "_flightId",
          "type": "uint256"
        }
      ],
      "name": "getFlightById",
      "outputs": [
        {
          "internalType": "bool",
          "name": "isRegistered_",
          "type": "bool"
        },
        {
          "internalType": "uint8",
          "name": "statusCode_",
          "type": "uint8"
        },
        {
          "internalType": "uint256",
          "name": "updatedTimestamp_",
          "type": "uint256"
        },
        {
          "internalType": "address",
          "name": "airline_",
          "type": "address"
        },
        {
          "internalType": "string",
          "name": "flight_",
          "type": "string"
        }
      ],
      "stateMutability": "view",
      "type": "function",
      "constant": true
    },
    {
      "inputs": [
        {
          "internalType": "uint256",
          "name": "flightId",
          "type": "uint256"
        },
        {
          "internalType": "uint8",
          "name": "statusCode",
          "type": "uint8"
        }
      ],
      "name": "setFlightStatus",
      "outputs": [],
      "stateMutability": "nonpayable",
      "type": "function"
    },
    {
      "inputs": [],
      "name": "getFlightCount",
      "outputs": [
        {
          "internalType": "uint256",
          "name": "flightCount_",
          "type": "uint256"
        }
      ],
      "stateMutability": "view",
      "type": "function",
      "constant": true
    },
    {
      "inputs": [
        {
          "internalType": "address",
          "name": "_airline",
          "type": "address"
        },
        {
          "internalType": "string",
          "name": "_flight",
          "type": "string"
        },
        {
          "internalType": "uint256",
          "name": "_timestamp",
          "type": "uint256"
        }
      ],
      "name": "getFlightId",
      "outputs": [
        {
          "internalType": "uint256",
          "name": "flightId_",
          "type": "uint256"
        }
      ],
      "stateMutability": "view",
      "type": "function",
      "constant": true
    },
    {
      "inputs": [
        {
          "internalType": "address",
          "name": "_passenger",
          "type": "address"
        },
        {
          "internalType": "uint256",
          "name": "_flightId",
          "type": "uint256"
        },
        {
          "internalType": "uint256",
          "name": "_payment",
          "type": "uint256"
        }
      ],
      "name": "createInsurance",
      "outputs": [],
      "stateMutability": "nonpayable",
      "type": "function"
    },
    {
      "inputs": [
        {
          "internalType": "uint256",
          "name": "insuranceId",
          "type": "uint256"
        }
      ],
      "name": "getInsuranceById",
      "outputs": [
        {
          "internalType": "address",
          "name": "passenger_",
          "type": "address"
        },
        {
          "internalType": "uint256",
          "name": "payment_",
          "type": "uint256"
        },
        {
          "internalType": "enum FlightSuretyData.InsuranceStatus",
          "name": "status_",
          "type": "uint8"
        }
      ],
      "stateMutability": "view",
      "type": "function",
      "constant": true
    },
    {
      "inputs": [
        {
          "internalType": "uint256",
          "name": "_flightId",
          "type": "uint256"
        }
      ],
      "name": "getInsurancesByFlightId",
      "outputs": [
        {
          "internalType": "uint256[]",
          "name": "insurances_",
          "type": "uint256[]"
        }
      ],
      "stateMutability": "view",
      "type": "function",
      "constant": true
    },
    {
      "inputs": [
        {
          "internalType": "uint256",
          "name": "_insuranceId",
          "type": "uint256"
        },
        {
          "internalType": "uint256",
          "name": "amount",
          "type": "uint256"
        }
      ],
      "name": "creditInsurees",
      "outputs": [],
      "stateMutability": "nonpayable",
      "type": "function"
    },
    {
      "inputs": [
        {
          "internalType": "address",
          "name": "passenger",
          "type": "address"
        },
        {
          "internalType": "uint256",
          "name": "amount",
          "type": "uint256"
        }
      ],
      "name": "pay",
      "outputs": [],
      "stateMutability": "nonpayable",
      "type": "function"
    },
    {
      "inputs": [],
      "name": "fund",
      "outputs": [],
      "stateMutability": "payable",
      "type": "function",
      "payable": true
    }
  ],
  "bytecode": "0x60806040526001600060146101000a81548160ff021916908315150217905550600060025560006004556000600755336000806101000a81548173ffffffffffffffffffffffffffffffffffffffff021916908373ffffffffffffffffffffffffffffffffffffffff1602179055506200008b60016002546200012460201b620021261790919060201c565b6002819055506000600360008060009054906101000a900473ffffffffffffffffffffffffffffffffffffffff1673ffffffffffffffffffffffffffffffffffffffff1673ffffffffffffffffffffffffffffffffffffffff1681526020019081526020016000209050600254816000018190555060018160010160006101000a81548160ff02191690831515021790555050620001d2565b600081836200013491906200013c565b905092915050565b6000620001498262000199565b9150620001568362000199565b9250827fffffffffffffffffffffffffffffffffffffffffffffffffffffffffffffffff038211156200018e576200018d620001a3565b5b828201905092915050565b6000819050919050565b7f4e487b7100000000000000000000000000000000000000000000000000000000600052601160045260246000fd5b6131ab80620001e26000396000f3fe6080604052600436106101185760003560e01c80639cb1be97116100a0578063caab72c211610064578063caab72c21461039c578063cd905dff146103c5578063dfd4fd94146103f0578063e1de048914610419578063fa975a4d1461045757610119565b80639cb1be97146102c2578063a802bbf8146102ff578063b60d428814610328578063c407687614610332578063c6a48d251461035b57610119565b806369ec5ddd116100e757806369ec5ddd146101df5780636e06fe23146102085780636e861c0e146102315780637f9e18081461025a578063968d1a0e1461028557610119565b8063110466ed14610123578063369b91431461014c578063515b3d281461018b57806367561d93146101b657610119565b5b610121610494565b005b34801561012f57600080fd5b5061014a600480360381019061014591906124b9565b610496565b005b34801561015857600080fd5b50610173600480360381019061016e91906124e2565b610541565b60405161018293929190612882565b60405180910390f35b34801561019757600080fd5b506101a0610760565b6040516101ad9190612a90565b60405180910390f35b3480156101c257600080fd5b506101dd60048036038101906101d891906122e7565b61076a565b005b3480156101eb57600080fd5b50610206600480360381019061020191906122e7565b610853565b005b34801561021457600080fd5b5061022f600480360381019061022a9190612310565b610a45565b005b34801561023d57600080fd5b50610258600480360381019061025391906122e7565b610c0a565b005b34801561026657600080fd5b5061026f610cea565b60405161027c9190612a90565b60405180910390f35b34801561029157600080fd5b506102ac60048036038101906102a791906123b3565b610dd4565b6040516102b99190612a90565b60405180910390f35b3480156102ce57600080fd5b506102e960048036038101906102e4919061234c565b611069565b6040516102f69190612a90565b60405180910390f35b34801561030b57600080fd5b506103266004803603810190610321919061246a565b611097565b005b610330610494565b005b34801561033e57600080fd5b506103596004803603810190610354919061242e565b6112a1565b005b34801561036757600080fd5b50610382600480360381019061037d91906124e2565b61152b565b6040516103939594939291906128f6565b60405180910390f35b3480156103a857600080fd5b506103c360048036038101906103be9190612547565b6117c0565b005b3480156103d157600080fd5b506103da611938565b6040516103e791906128db565b60405180910390f35b3480156103fc57600080fd5b506104176004803603810190610412919061250b565b61194e565b005b34801561042557600080fd5b50610440600480360381019061043b91906122e7565b611d85565b60405161044e929190612aab565b60405180910390f35b34801561046357600080fd5b5061047e600480360381019061047991906124e2565b611f76565b60405161048b91906128b9565b60405180910390f35b565b60008054906101000a900473ffffffffffffffffffffffffffffffffffffffff1673ffffffffffffffffffffffffffffffffffffffff163373ffffffffffffffffffffffffffffffffffffffff1614610524576040517f08c379a000000000000000000000000000000000000000000000000000000000815260040161051b90612a30565b60405180910390fd5b80600060146101000a81548160ff02191690831515021790555050565b600080600060018060003373ffffffffffffffffffffffffffffffffffffffff1673ffffffffffffffffffffffffffffffffffffffff16815260200190815260200160002060009054906101000a900460ff1660ff16146105d7576040517f08c379a00000000000000000000000000000000000000000000000000000000081526004016105ce90612950565b60405180910390fd5b600060149054906101000a900460ff16610626576040517f08c379a000000000000000000000000000000000000000000000000000000000815260040161061d90612a10565b60405180910390fd5b6000600860008681526020019081526020016000206040518060a0016040529081600082015481526020016001820160009054906101000a900460ff16600281111561069b577f4e487b7100000000000000000000000000000000000000000000000000000000600052602160045260246000fd5b60028111156106d3577f4e487b7100000000000000000000000000000000000000000000000000000000600052602160045260246000fd5b815260200160028201548152602001600382015481526020016004820160009054906101000a900473ffffffffffffffffffffffffffffffffffffffff1673ffffffffffffffffffffffffffffffffffffffff1673ffffffffffffffffffffffffffffffffffffffff16815250509050806080015193508060600151925080602001519150509193909250565b6000600454905090565b60008054906101000a900473ffffffffffffffffffffffffffffffffffffffff1673ffffffffffffffffffffffffffffffffffffffff163373ffffffffffffffffffffffffffffffffffffffff16146107f8576040517f08c379a00000000000000000000000000000000000000000000000000000000081526004016107ef90612a30565b60405180910390fd5b60018060008373ffffffffffffffffffffffffffffffffffffffff1673ffffffffffffffffffffffffffffffffffffffff16815260200190815260200160002060006101000a81548160ff021916908360ff16021790555050565b60018060003373ffffffffffffffffffffffffffffffffffffffff1673ffffffffffffffffffffffffffffffffffffffff16815260200190815260200160002060009054906101000a900460ff1660ff16146108e4576040517f08c379a00000000000000000000000000000000000000000000000000000000081526004016108db90612950565b60405180910390fd5b600060149054906101000a900460ff16610933576040517f08c379a000000000000000000000000000000000000000000000000000000000815260040161092a90612a10565b60405180910390fd5b806000600360008373ffffffffffffffffffffffffffffffffffffffff1673ffffffffffffffffffffffffffffffffffffffff16815260200190815260200160002060000154146109b9576040517f08c379a00000000000000000000000000000000000000000000000000000000081526004016109b0906129f0565b60405180910390fd5b6109cf600160025461212690919063ffffffff16565b6002819055506000600360008473ffffffffffffffffffffffffffffffffffffffff1673ffffffffffffffffffffffffffffffffffffffff1681526020019081526020016000209050600254816000018190555060008160010160006101000a81548160ff021916908315150217905550505050565b60018060003373ffffffffffffffffffffffffffffffffffffffff1673ffffffffffffffffffffffffffffffffffffffff16815260200190815260200160002060009054906101000a900460ff1660ff1614610ad6576040517f08c379a0000000000000000000000000000000000000000000000000000000008152600401610acd90612950565b60405180910390fd5b600060149054906101000a900460ff16610b25576040517f08c379a0000000000000000000000000000000000000000000000000000000008152600401610b1c90612a10565b60405180910390fd5b816000600360008373ffffffffffffffffffffffffffffffffffffffff1673ffffffffffffffffffffffffffffffffffffffff1681526020019081526020016000206000015411610bab576040517f08c379a0000000000000000000000000000000000000000000000000000000008152600401610ba290612990565b60405180910390fd5b81600360008573ffffffffffffffffffffffffffffffffffffffff1673ffffffffffffffffffffffffffffffffffffffff16815260200190815260200160002060010160006101000a81548160ff021916908315150217905550505050565b60008054906101000a900473ffffffffffffffffffffffffffffffffffffffff1673ffffffffffffffffffffffffffffffffffffffff163373ffffffffffffffffffffffffffffffffffffffff1614610c98576040517f08c379a0000000000000000000000000000000000000000000000000000000008152600401610c8f90612a30565b60405180910390fd5b600160008273ffffffffffffffffffffffffffffffffffffffff1673ffffffffffffffffffffffffffffffffffffffff16815260200190815260200160002060006101000a81549060ff021916905550565b600060018060003373ffffffffffffffffffffffffffffffffffffffff1673ffffffffffffffffffffffffffffffffffffffff16815260200190815260200160002060009054906101000a900460ff1660ff1614610d7d576040517f08c379a0000000000000000000000000000000000000000000000000000000008152600401610d7490612950565b60405180910390fd5b600060149054906101000a900460ff16610dcc576040517f08c379a0000000000000000000000000000000000000000000000000000000008152600401610dc390612a10565b60405180910390fd5b600254905090565b600060018060003373ffffffffffffffffffffffffffffffffffffffff1673ffffffffffffffffffffffffffffffffffffffff16815260200190815260200160002060009054906101000a900460ff1660ff1614610e67576040517f08c379a0000000000000000000000000000000000000000000000000000000008152600401610e5e90612950565b60405180910390fd5b600060149054906101000a900460ff16610eb6576040517f08c379a0000000000000000000000000000000000000000000000000000000008152600401610ead90612a10565b60405180910390fd5b8484846000610ec684848461213c565b90506000600660008381526020019081526020016000205490506005600082815260200190815260200160002060020160009054906101000a900460ff1615610f44576040517f08c379a0000000000000000000000000000000000000000000000000000000008152600401610f3b906129d0565b60405180910390fd5b610f5a600160045461212690919063ffffffff16565b6004819055506000610f6d8b8b8b61213c565b905060006005600060045481526020019081526020016000209050600454816000018190555081816001018190555060018160020160006101000a81548160ff021916908315150217905550888160020160016101000a81548160ff021916908360ff1602179055508981600301819055508b8160040160006101000a81548173ffffffffffffffffffffffffffffffffffffffff021916908373ffffffffffffffffffffffffffffffffffffffff1602179055508a81600501908051906020019061103a929190612188565b506004546006600084815260200190815260200160002081905550600454975050505050505050949350505050565b60008061107785858561213c565b905060066000828152602001908152602001600020549150509392505050565b60018060003373ffffffffffffffffffffffffffffffffffffffff1673ffffffffffffffffffffffffffffffffffffffff16815260200190815260200160002060009054906101000a900460ff1660ff1614611128576040517f08c379a000000000000000000000000000000000000000000000000000000000815260040161111f90612950565b60405180910390fd5b600060149054906101000a900460ff16611177576040517f08c379a000000000000000000000000000000000000000000000000000000000815260040161116e90612a10565b60405180910390fd5b61118d600160075461212690919063ffffffff16565b60078190555060006008600060075481526020019081526020016000209050600754816000018190555060008160010160006101000a81548160ff02191690836002811115611205577f4e487b7100000000000000000000000000000000000000000000000000000000600052602160045260246000fd5b0217905550828160020181905550818160030181905550838160040160006101000a81548173ffffffffffffffffffffffffffffffffffffffff021916908373ffffffffffffffffffffffffffffffffffffffff16021790555060096000848152602001908152602001600020600754908060018154018082558091505060019003906000526020600020016000909190919091505550505050565b60018060003373ffffffffffffffffffffffffffffffffffffffff1673ffffffffffffffffffffffffffffffffffffffff16815260200190815260200160002060009054906101000a900460ff1660ff1614611332576040517f08c379a000000000000000000000000000000000000000000000000000000000815260040161132990612950565b60405180910390fd5b600060149054906101000a900460ff16611381576040517f08c379a000000000000000000000000000000000000000000000000000000000815260040161137890612a10565b60405180910390fd5b818180600a60008473ffffffffffffffffffffffffffffffffffffffff1673ffffffffffffffffffffffffffffffffffffffff168152602001908152602001600020541015611405576040517f08c379a00000000000000000000000000000000000000000000000000000000081526004016113fc90612970565b60405180910390fd5b82804711611448576040517f08c379a000000000000000000000000000000000000000000000000000000000815260040161143f90612970565b60405180910390fd5b61149a84600a60008873ffffffffffffffffffffffffffffffffffffffff1673ffffffffffffffffffffffffffffffffffffffff1681526020019081526020016000205461217290919063ffffffff16565b600a60008773ffffffffffffffffffffffffffffffffffffffff1673ffffffffffffffffffffffffffffffffffffffff168152602001908152602001600020819055508473ffffffffffffffffffffffffffffffffffffffff166108fc859081150290604051600060405180830381858888f19350505050158015611523573d6000803e3d6000fd5b505050505050565b600080600080606060018060003373ffffffffffffffffffffffffffffffffffffffff1673ffffffffffffffffffffffffffffffffffffffff16815260200190815260200160002060009054906101000a900460ff1660ff16146115c4576040517f08c379a00000000000000000000000000000000000000000000000000000000081526004016115bb90612950565b60405180910390fd5b600060149054906101000a900460ff16611613576040517f08c379a000000000000000000000000000000000000000000000000000000000815260040161160a90612a10565b60405180910390fd5b856005600082815260200190815260200160002060020160009054906101000a900460ff16611677576040517f08c379a000000000000000000000000000000000000000000000000000000000815260040161166e90612a50565b60405180910390fd5b6005600088815260200190815260200160002060020160009054906101000a900460ff1695506005600088815260200190815260200160002060020160019054906101000a900460ff169450600560008881526020019081526020016000206003015493506005600088815260200190815260200160002060040160009054906101000a900473ffffffffffffffffffffffffffffffffffffffff16925060056000888152602001908152602001600020600501805461173690612cd0565b80601f016020809104026020016040519081016040528092919081815260200182805461176290612cd0565b80156117af5780601f10611784576101008083540402835291602001916117af565b820191906000526020600020905b81548152906001019060200180831161179257829003601f168201915b505050505091505091939590929450565b60018060003373ffffffffffffffffffffffffffffffffffffffff1673ffffffffffffffffffffffffffffffffffffffff16815260200190815260200160002060009054906101000a900460ff1660ff1614611851576040517f08c379a000000000000000000000000000000000000000000000000000000000815260040161184890612950565b60405180910390fd5b600060149054906101000a900460ff166118a0576040517f08c379a000000000000000000000000000000000000000000000000000000000815260040161189790612a10565b60405180910390fd5b816005600082815260200190815260200160002060020160009054906101000a900460ff16611904576040517f08c379a00000000000000000000000000000000000000000000000000000000081526004016118fb90612a50565b60405180910390fd5b816005600085815260200190815260200160002060020160016101000a81548160ff021916908360ff160217905550505050565b60008060149054906101000a900460ff16905090565b60018060003373ffffffffffffffffffffffffffffffffffffffff1673ffffffffffffffffffffffffffffffffffffffff16815260200190815260200160002060009054906101000a900460ff1660ff16146119df576040517f08c379a00000000000000000000000000000000000000000000000000000000081526004016119d690612950565b60405180910390fd5b600060149054906101000a900460ff16611a2e576040517f08c379a0000000000000000000000000000000000000000000000000000000008152600401611a2590612a10565b60405180910390fd5b816000600860008381526020019081526020016000206000015411611a88576040517f08c379a0000000000000000000000000000000000000000000000000000000008152600401611a7f90612a70565b60405180910390fd5b8260006002811115611ac3577f4e487b7100000000000000000000000000000000000000000000000000000000600052602160045260246000fd5b6008600083815260200190815260200160002060010160009054906101000a900460ff166002811115611b1f577f4e487b7100000000000000000000000000000000000000000000000000000000600052602160045260246000fd5b14611b5f576040517f08c379a0000000000000000000000000000000000000000000000000000000008152600401611b56906129b0565b60405180910390fd5b6000600860008681526020019081526020016000206040518060a0016040529081600082015481526020016001820160009054906101000a900460ff166002811115611bd4577f4e487b7100000000000000000000000000000000000000000000000000000000600052602160045260246000fd5b6002811115611c0c577f4e487b7100000000000000000000000000000000000000000000000000000000600052602160045260246000fd5b815260200160028201548152602001600382015481526020016004820160009054906101000a900473ffffffffffffffffffffffffffffffffffffffff1673ffffffffffffffffffffffffffffffffffffffff1673ffffffffffffffffffffffffffffffffffffffff16815250509050611cd284600a6000846080015173ffffffffffffffffffffffffffffffffffffffff1673ffffffffffffffffffffffffffffffffffffffff1681526020019081526020016000205461212690919063ffffffff16565b600a6000836080015173ffffffffffffffffffffffffffffffffffffffff1673ffffffffffffffffffffffffffffffffffffffff1681526020019081526020016000208190555060026008600087815260200190815260200160002060010160006101000a81548160ff02191690836002811115611d79577f4e487b7100000000000000000000000000000000000000000000000000000000600052602160045260246000fd5b02179055505050505050565b60008060018060003373ffffffffffffffffffffffffffffffffffffffff1673ffffffffffffffffffffffffffffffffffffffff16815260200190815260200160002060009054906101000a900460ff1660ff1614611e19576040517f08c379a0000000000000000000000000000000000000000000000000000000008152600401611e1090612950565b60405180910390fd5b600060149054906101000a900460ff16611e68576040517f08c379a0000000000000000000000000000000000000000000000000000000008152600401611e5f90612a10565b60405180910390fd5b826000600360008373ffffffffffffffffffffffffffffffffffffffff1673ffffffffffffffffffffffffffffffffffffffff1681526020019081526020016000206000015411611eee576040517f08c379a0000000000000000000000000000000000000000000000000000000008152600401611ee590612990565b60405180910390fd5b6000600360008673ffffffffffffffffffffffffffffffffffffffff1673ffffffffffffffffffffffffffffffffffffffff168152602001908152602001600020604051806040016040529081600082015481526020016001820160009054906101000a900460ff161515151581525050905080600001518160200151935093505050915091565b606060018060003373ffffffffffffffffffffffffffffffffffffffff1673ffffffffffffffffffffffffffffffffffffffff16815260200190815260200160002060009054906101000a900460ff1660ff1614612009576040517f08c379a000000000000000000000000000000000000000000000000000000000815260040161200090612950565b60405180910390fd5b600060149054906101000a900460ff16612058576040517f08c379a000000000000000000000000000000000000000000000000000000000815260040161204f90612a10565b60405180910390fd5b816005600082815260200190815260200160002060020160009054906101000a900460ff166120bc576040517f08c379a00000000000000000000000000000000000000000000000000000000081526004016120b390612a50565b60405180910390fd5b6009600084815260200190815260200160002080548060200260200160405190810160405280929190818152602001828054801561211957602002820191906000526020600020905b815481526020019060010190808311612105575b5050505050915050919050565b600081836121349190612b8a565b905092915050565b600083838360405160200161215393929190612849565b6040516020818303038152906040528051906020012090509392505050565b600081836121809190612be0565b905092915050565b82805461219490612cd0565b90600052602060002090601f0160209004810192826121b657600085556121fd565b82601f106121cf57805160ff19168380011785556121fd565b828001600101855582156121fd579182015b828111156121fc5782518255916020019190600101906121e1565b5b50905061220a919061220e565b5090565b5b8082111561222757600081600090555060010161220f565b5090565b600061223e61223984612af9565b612ad4565b90508281526020810184848401111561225657600080fd5b612261848285612c8e565b509392505050565b60008135905061227881613119565b92915050565b60008135905061228d81613130565b92915050565b600082601f8301126122a457600080fd5b81356122b484826020860161222b565b91505092915050565b6000813590506122cc81613147565b92915050565b6000813590506122e18161315e565b92915050565b6000602082840312156122f957600080fd5b600061230784828501612269565b91505092915050565b6000806040838503121561232357600080fd5b600061233185828601612269565b92505060206123428582860161227e565b9150509250929050565b60008060006060848603121561236157600080fd5b600061236f86828701612269565b935050602084013567ffffffffffffffff81111561238c57600080fd5b61239886828701612293565b92505060406123a9868287016122bd565b9150509250925092565b600080600080608085870312156123c957600080fd5b60006123d787828801612269565b945050602085013567ffffffffffffffff8111156123f457600080fd5b61240087828801612293565b9350506040612411878288016122bd565b9250506060612422878288016122d2565b91505092959194509250565b6000806040838503121561244157600080fd5b600061244f85828601612269565b9250506020612460858286016122bd565b9150509250929050565b60008060006060848603121561247f57600080fd5b600061248d86828701612269565b935050602061249e868287016122bd565b92505060406124af868287016122bd565b9150509250925092565b6000602082840312156124cb57600080fd5b60006124d98482850161227e565b91505092915050565b6000602082840312156124f457600080fd5b6000612502848285016122bd565b91505092915050565b6000806040838503121561251e57600080fd5b600061252c858286016122bd565b925050602061253d858286016122bd565b9150509250929050565b6000806040838503121561255a57600080fd5b6000612568858286016122bd565b9250506020612579858286016122d2565b9150509250929050565b600061258f8383612805565b60208301905092915050565b6125a481612c14565b82525050565b6125bb6125b682612c14565b612d33565b82525050565b60006125cc82612b3a565b6125d68185612b5d565b93506125e183612b2a565b8060005b838110156126125781516125f98882612583565b975061260483612b50565b9250506001810190506125e5565b5085935050505092915050565b61262881612c26565b82525050565b61263781612c7c565b82525050565b600061264882612b45565b6126528185612b6e565b9350612662818560208601612c9d565b61266b81612e1d565b840191505092915050565b600061268182612b45565b61268b8185612b7f565b935061269b818560208601612c9d565b80840191505092915050565b60006126b4603083612b6e565b91506126bf82612e3b565b604082019050919050565b60006126d7602b83612b6e565b91506126e282612e8a565b604082019050919050565b60006126fa602e83612b6e565b915061270582612ed9565b604082019050919050565b600061271d602683612b6e565b915061272882612f28565b604082019050919050565b6000612740602783612b6e565b915061274b82612f77565b604082019050919050565b6000612763602683612b6e565b915061276e82612fc6565b604082019050919050565b6000612786602583612b6e565b915061279182613015565b604082019050919050565b60006127a9601c83612b6e565b91506127b482613064565b602082019050919050565b60006127cc602383612b6e565b91506127d78261308d565b604082019050919050565b60006127ef602083612b6e565b91506127fa826130dc565b602082019050919050565b61280e81612c65565b82525050565b61281d81612c65565b82525050565b61283461282f82612c65565b612d57565b82525050565b61284381612c6f565b82525050565b600061285582866125aa565b6014820191506128658285612676565b91506128718284612823565b602082019150819050949350505050565b6000606082019050612897600083018661259b565b6128a46020830185612814565b6128b1604083018461262e565b949350505050565b600060208201905081810360008301526128d381846125c1565b905092915050565b60006020820190506128f0600083018461261f565b92915050565b600060a08201905061290b600083018861261f565b612918602083018761283a565b6129256040830186612814565b612932606083018561259b565b8181036080830152612944818461263d565b90509695505050505050565b60006020820190508181036000830152612969816126a7565b9050919050565b60006020820190508181036000830152612989816126ca565b9050919050565b600060208201905081810360008301526129a9816126ed565b9050919050565b600060208201905081810360008301526129c981612710565b9050919050565b600060208201905081810360008301526129e981612733565b9050919050565b60006020820190508181036000830152612a0981612756565b9050919050565b60006020820190508181036000830152612a2981612779565b9050919050565b60006020820190508181036000830152612a498161279c565b9050919050565b60006020820190508181036000830152612a69816127bf565b9050919050565b60006020820190508181036000830152612a89816127e2565b9050919050565b6000602082019050612aa56000830184612814565b92915050565b6000604082019050612ac06000830185612814565b612acd602083018461261f565b9392505050565b6000612ade612aef565b9050612aea8282612d02565b919050565b6000604051905090565b600067ffffffffffffffff821115612b1457612b13612dee565b5b612b1d82612e1d565b9050602081019050919050565b6000819050602082019050919050565b600081519050919050565b600081519050919050565b6000602082019050919050565b600082825260208201905092915050565b600082825260208201905092915050565b600081905092915050565b6000612b9582612c65565b9150612ba083612c65565b9250827fffffffffffffffffffffffffffffffffffffffffffffffffffffffffffffffff03821115612bd557612bd4612d61565b5b828201905092915050565b6000612beb82612c65565b9150612bf683612c65565b925082821015612c0957612c08612d61565b5b828203905092915050565b6000612c1f82612c45565b9050919050565b60008115159050919050565b6000819050612c4082613105565b919050565b600073ffffffffffffffffffffffffffffffffffffffff82169050919050565b6000819050919050565b600060ff82169050919050565b6000612c8782612c32565b9050919050565b82818337600083830152505050565b60005b83811015612cbb578082015181840152602081019050612ca0565b83811115612cca576000848401525b50505050565b60006002820490506001821680612ce857607f821691505b60208210811415612cfc57612cfb612dbf565b5b50919050565b612d0b82612e1d565b810181811067ffffffffffffffff82111715612d2a57612d29612dee565b5b80604052505050565b6000612d3e82612d45565b9050919050565b6000612d5082612e2e565b9050919050565b6000819050919050565b7f4e487b7100000000000000000000000000000000000000000000000000000000600052601160045260246000fd5b7f4e487b7100000000000000000000000000000000000000000000000000000000600052602160045260246000fd5b7f4e487b7100000000000000000000000000000000000000000000000000000000600052602260045260246000fd5b7f4e487b7100000000000000000000000000000000000000000000000000000000600052604160045260246000fd5b6000601f19601f8301169050919050565b60008160601b9050919050565b7f43616c6c6572206973206e6f7420616e20617574686f72697a6564204170706c60008201527f69636174696f6e20436f6e747261637400000000000000000000000000000000602082015250565b7f50617373656e67657220646f6573206e6f7420686176652074686520616d6f7560008201527f6e74207265717569726564000000000000000000000000000000000000000000602082015250565b7f4169726c696e6520686173204e4f54206265656e20726567697374657265642060008201527f79657420696e2074686520617070000000000000000000000000000000000000602082015250565b7f496e737572616e636520697320496e76616c6964206f7220637265646974206160008201527f70706c6965640000000000000000000000000000000000000000000000000000602082015250565b7f466c6967687420697320616c7265616479207265676973746572656420696e2060008201527f7468652061707000000000000000000000000000000000000000000000000000602082015250565b7f4169726c696e6520686173206265656e207265676973746572656420696e207460008201527f6865206170700000000000000000000000000000000000000000000000000000602082015250565b7f436f6e74726163742069732063757272656e746c79206e6f74206f706572617460008201527f696f6e616c000000000000000000000000000000000000000000000000000000602082015250565b7f43616c6c6572206973206e6f7420636f6e7472616374206f776e657200000000600082015250565b7f466c69676874206973206e6f74207265676973746572656420696e207468652060008201527f6170700000000000000000000000000000000000000000000000000000000000602082015250565b7f496e737572616e636520697320496e76616c6964206f72204372656469746564600082015250565b6003811061311657613115612d90565b5b50565b61312281612c14565b811461312d57600080fd5b50565b61313981612c26565b811461314457600080fd5b50565b61315081612c65565b811461315b57600080fd5b50565b61316781612c6f565b811461317257600080fd5b5056fea264697066735822122077cba9b0db7f9569754f0580239f0185edb66cc58a8a6199f3dff37e891ee91664736f6c63430008010033",
  "immutableReferences": {},
  "source": "// SPDX-License-Identifier: MIT\npragma solidity ^0.8.0;\n\nimport \"../node_modules/@openzeppelin/contracts/utils/math/SafeMath.sol\";\n\ncontract FlightSuretyData {\n    using SafeMath for uint256;\n\n    /********************************************************************************************/\n    /*                                       DATA VARIABLES                                     */\n    /********************************************************************************************/\n\n    address private contractOwner;                                      // Account used to deploy contract\n    bool private operational = true;                                    // Blocks all state changes throughout the contract if false\n    \n    mapping(address => uint8) private authorizedContracts;\t\t\t// Contract addresses from which this Data Contract is ONLY authorized to get request from.\n    \n    // Airlines Datavariables\n    struct Airline {\n    \tuint256 id;\n    \tbool hasFunded;\n    }\n    uint256 private airlineCount = 0;\n    mapping(address => Airline) airlines;\n\n    // Flights Data variables\n    struct Flight {\n    \tuint256 id;\n    \tbytes32 key;\n        bool isRegistered;\n        uint8 statusCode;\n        uint256 updatedTimestamp;        \n        address airline;\n        string flight;\n    }\n    uint256 private flightCount = 0;\n    mapping(uint256 => Flight) private flights;\n    mapping(bytes32 => uint256) private flightKeyId; //Track flights if no id is available but airline, flight and timestamp\n\n\t// Insurance Data variables\n\tenum InsuranceStatus {Valid, Invalid, Applied}\n\tstruct Insurance {\n\t\tuint256 id;\n\t\tInsuranceStatus status;\n\t\tuint256 flightId;\n\t\tuint256 payment;\n\t\taddress passenger;\n\t}\n\tuint256 insuranceCount = 0;\n\tmapping(uint256 => Insurance) private insurances;\n\tmapping(uint256 => uint256[]) private flightInsurees;\n\tmapping(address => uint256) private passengerBalance;\n\t\n    /********************************************************************************************/\n    /*                                       CONSTRUCTOR                                        */\n    /********************************************************************************************/\n\n\n    /**\n    * @dev Constructor\n    *      The deploying account becomes contractOwner\n    */\n    constructor() payable {\n        contractOwner = msg.sender;\n        \n        // Add the creator of the contract (contractOwner) to the Airlines already registered and has funded\n        airlineCount = airlineCount.add(1);\n        Airline storage airline = airlines[contractOwner];\n        airline.id = airlineCount;\n        airline.hasFunded = true;\n    }\n\n    /********************************************************************************************/\n    /*                                       FUNCTION MODIFIERS                                 */\n    /********************************************************************************************/\n\n    // Modifiers help avoid duplication of code. They are typically used to validate something\n    // before a function is allowed to be executed.\n\n    /**\n    * @dev Modifier that requires the \"operational\" boolean variable to be \"true\"\n    *      This is used on all state changing functions to pause the contract in \n    *      the event there is an issue that needs to be fixed\n    */\n    modifier requireIsOperational() {\n        require(operational, \"Contract is currently not operational\");\n        _;  // All modifiers require an \"_\" which indicates where the function body will be added\n    }\n\n    /**\n    * @dev Modifier that requires the \"ContractOwner\" account to be the function caller\n    */\n    modifier requireContractOwner() {\n        require(msg.sender == contractOwner, \"Caller is not contract owner\");\n        _;\n    }\n\n    /**\n    * @dev Modifier that requires the Application Contract Address is authorized to request operation in Data Contract\n    */\n    modifier requireApplicationContract() {\n        require(authorizedContracts[msg.sender] == 1, \"Caller is not an authorized Application Contract\");\n        _;\n    }\n\t\n\tmodifier airlineNotRegistered(address _airline) {\n\t\trequire(airlines[_airline].id == 0, \"Airline has been registered in the app\");\n\t\t_;\n\t}\n\t\n\tmodifier airlineRegistered(address _airline) { \n\t\trequire(airlines[_airline].id > 0, \"Airline has NOT been registered yet in the app\");\n\t\t_;\n\t}\n\t\n\t\t\n\tmodifier flightRegistered(address _airline, string memory _flight, uint256 _timestamp) {\n\t\tbytes32 key = getFlightKey(_airline, _flight, _timestamp);\n\t\tuint256 flightId = flightKeyId[key];\n\t\trequire(flights[flightId].isRegistered, \"Flight is not registered in the app\");\n\t\t_;\n\t}\n\n\tmodifier flightRegisteredById(uint256 flightId) {\n\t\trequire(flights[flightId].isRegistered, \"Flight is not registered in the app\");\n\t\t_;\n\t}\n\t\n\tmodifier flightNotRegistered(address _airline, string memory _flight, uint256 _timestamp) {\n\t\tbytes32 key = getFlightKey(_airline, _flight, _timestamp);\n\t\tuint256 flightId = flightKeyId[key];\n\t\trequire(!flights[flightId].isRegistered, \"Flight is already registered in the app\");\n\t\t_;\t\t\n\t}\n\n\tmodifier insuranceValid(uint256 insuranceId) {\n\t\trequire(insurances[insuranceId].status == InsuranceStatus.Valid, \"Insurance is Invalid or credit applied\");\n\t\t_;\n\t}\n\t\n\tmodifier insuranceExist(uint256 insuranceId) {\n\t\trequire(insurances[insuranceId].id > 0 , \"Insurance is Invalid or Credited\");\n\t\t_;\n\t}\n\t\n\tmodifier passengerHasFunds(address passenger, uint256 amount) {\n\t\trequire(passengerBalance[passenger] >= amount, \"Passenger does not have the amount required\");\n\t\t_;\n\t}    \n\t\n\tmodifier contractHasFunds(uint256 amount) {\n\t\trequire(address(this).balance > amount, \"Passenger does not have the amount required\");\n\t\t_;\n\t}    \n\n    /********************************************************************************************/\n    /*                                       UTILITY FUNCTIONS                                  */\n    /********************************************************************************************/\n\n    /**\n    * @dev Get operating status of contract\n    *\n    * @return A bool that is the current operating status\n    */      \n    function isOperational() \n                            external\n                            view \n                            returns(bool) \n    {\n        return operational;\n    }\n\n\n    /**\n    * @dev Sets contract operations on/off\n    *\n    * When operational mode is disabled, all write transactions except for this one will fail\n    */    \n    function setOperatingStatus(bool mode) \n                            external\n                            requireContractOwner \n    {\n        operational = mode;\n    }\n    \n    /**\n    * @dev Sets Application Contract Address from this Data Contract receives requests from \n    *\n    */    \n    function authorizeContract(address caller) \n    \t\texternal \t\n    \t\trequireContractOwner // Only contract owner can set the App Contract Address.\n    {\n    \tauthorizedContracts[caller] = 1;\n    }\n\n    /**\n    * @dev Deletes the Application Contract and stops getting requests from it. \n    *\n    */    \n    function deauthorizeContract(address caller) \n    \t\texternal \t\n    \t\trequireContractOwner // Only contract owner can set the App Contract Address.\n    {\n    \tdelete authorizedContracts[caller];\n    }\n\n\n\n    /********************************************************************************************/\n    /*                                     SMART CONTRACT FUNCTIONS                             */\n    /********************************************************************************************/\n\n   /**\n    * @dev Create an airline\n    *      Can only be called from FlightSuretyApp contract\n    *\n    */   \n    function createAirline(address newAirline) external requireApplicationContract requireIsOperational\n    \tairlineNotRegistered(newAirline) \n    {\n    \tairlineCount = airlineCount.add(1);\n    \n    \tAirline storage airline = airlines[newAirline];\n    \tairline.id = airlineCount;\n    \tairline.hasFunded = false;    \t\n    }\n\t\n\tfunction getAirline(address _airline) external view requireApplicationContract requireIsOperational\n\t\tairlineRegistered(_airline)\n\t\treturns(uint256 id, bool hasFunded) \n\t{\n\t\tAirline memory airline = airlines[_airline];\n\t\treturn (airline.id, airline.hasFunded); \t\n\t}\t\n\t\n\tfunction getAirlineCount() external view requireApplicationContract requireIsOperational returns(uint256 airlineCount_) {\n\t\tairlineCount_ = airlineCount;\n\t\treturn(airlineCount_); \n\t}\t\n\t\n\tfunction setAirlineHasFunded(address airline, bool hasFunded) external requireApplicationContract requireIsOperational \n\t\tairlineRegistered(airline)\n\t{\n\t\tairlines[airline].hasFunded = hasFunded;\t\t\n\t}\n\t\n   /**\n    * @dev Create a fligth\n    *      Can only be called from FlightSuretyApp contract\n    *\n    */   \n    function createFlight(address _airline, string memory _flight, uint256 _timestamp, uint8 _statusCode)\t\n    \texternal\n        requireApplicationContract\n        requireIsOperational\n        flightNotRegistered(_airline, _flight, _timestamp)\n        returns(uint256 flightId_)\n    {\n    \tflightCount = flightCount.add(1);\n\t\t\n\t\tbytes32 key = getFlightKey(_airline, _flight, _timestamp);\n    \t\n    \tFlight storage flight = flights[flightCount]   ;\n        flight.id = flightCount;\n        flight.key = key;\n        flight.isRegistered = true;\n        flight.statusCode = _statusCode;\n        flight.updatedTimestamp = _timestamp;        \n        flight.airline = _airline;\n        flight.flight = _flight;\n\n\t\tflightKeyId[key] = flightCount;\n\t\t\n\t\tflightId_ = flightCount;\n\t\treturn(flightId_);\n    }    \n\n    function getFlightById(uint256 _flightId) external view\t\n        requireApplicationContract\n        requireIsOperational\n        flightRegisteredById(_flightId)\n        returns(bool isRegistered_, uint8 statusCode_, uint256 updatedTimestamp_, address airline_, string memory flight_)\n     {\n     \tisRegistered_ = flights[_flightId].isRegistered;\n        statusCode_ = flights[_flightId].statusCode;\n        updatedTimestamp_ = flights[_flightId].updatedTimestamp;        \n        airline_ = flights[_flightId].airline;\n        flight_ = flights[_flightId].flight;\n        \n        return (isRegistered_, statusCode_, updatedTimestamp_, airline_, flight_);\n     }\n    \n    function setFlightStatus(uint256 flightId, uint8 statusCode) external\t\n        requireApplicationContract\n        requireIsOperational\n        flightRegisteredById(flightId)\n\t{\n\t\tflights[flightId].statusCode = statusCode;\n\t}\n\n    function getFlightCount() external view returns(uint256 flightCount_) {\n    \tflightCount_ = flightCount;\n    \treturn(flightCount_);\n    }    \n    \n    function getFlightId(address _airline, string memory _flight, uint256 _timestamp) external view returns(uint256 flightId_) {\n    \tbytes32 key = getFlightKey(_airline, _flight, _timestamp);    \t\n    \tflightId_ = flightKeyId[key];\n    \t\n    \treturn(flightId_);\n    }\n    \n    /**\n    * @dev Buy insurance for a flight\n    *\n    */\n\tfunction createInsurance(address _passenger, uint256 _flightId, uint256 _payment) external\n        requireApplicationContract\n        requireIsOperational\n\t{\n\t\tinsuranceCount = insuranceCount.add(1);\n\t\tInsurance storage insurance = insurances[insuranceCount];\n\t\tinsurance.id = insuranceCount;\n\t\tinsurance.status = InsuranceStatus.Valid;\n\t\tinsurance.flightId = _flightId;\n\t\tinsurance.payment = _payment;\n\t\tinsurance.passenger = _passenger;\n\t\t\n\t\tflightInsurees[_flightId].push(insuranceCount);\n\t}\n\t\n\tfunction getInsuranceById(uint256 insuranceId) external view\n        requireApplicationContract\n        requireIsOperational\n        returns(address passenger_, uint256 payment_, InsuranceStatus status_)\n    {\n\t\tInsurance memory insurance = insurances[insuranceId];\n\t\t\n\t    passenger_ = insurance.passenger;\n\t    payment_ = insurance.payment;\n\t    status_\t= insurance.status;\n\n\t\treturn(passenger_, payment_, status_);    \n    }\n\t\n\tfunction getInsurancesByFlightId(uint256 _flightId) external view\n        requireApplicationContract\n        requireIsOperational\n        flightRegisteredById(_flightId)\n        returns(uint256[] memory insurances_)\n\t{\n\t\tinsurances_ = flightInsurees[_flightId];\n\t\treturn(insurances_);\t\n\t}\t\n\t\n    /**\n     *  @dev Credits payouts to insurees\n    */\n    function creditInsurees(uint256 _insuranceId, uint256 amount) external\n        requireApplicationContract\n        requireIsOperational\n\t\tinsuranceExist(_insuranceId)\n\t\tinsuranceValid(_insuranceId)\n    {\n    \tInsurance memory insurance = insurances[_insuranceId];\n    \tpassengerBalance[insurance.passenger] = passengerBalance[insurance.passenger].add(amount);\n\t    insurances[_insuranceId].status = InsuranceStatus.Applied;\n    }\n\n    /**\n     *  @dev Transfers eligible payout funds to insuree\n     *\n    */\n    function pay(address passenger, uint256 amount) external\n        requireApplicationContract\n        requireIsOperational   \n        passengerHasFunds(passenger, amount) \t\n        contractHasFunds(amount)\n    {\t\n    \tpassengerBalance[passenger] = passengerBalance[passenger].sub(amount); \n    \tpayable(passenger).transfer(amount);\n    }\n\n   /**\n    * @dev Initial funding for the insurance. Unless there are too many delayed flights\n    *      resulting in insurance payouts, the contract should be self-sustaining\n    *\n    */\n    function fund\n                            (   \n                            )\n                            public\n                            payable\n    {\n    }\n\n    function getFlightKey(address airline, string memory flight, uint256 timestamp)\n        pure internal returns(bytes32) {\n        return keccak256(abi.encodePacked(airline, flight, timestamp));\n    }\n\n    /**\n    * @dev Fallback function for funding smart contract.\n    *\n    */\n    fallback() \n                            external \n                            payable \n    {\n        fund();\n    }\n\n\n}\n\n",
  "sourcePath": "/Users/luischapa/Ethereum/project-4-FlightSurety/contracts/FlightSuretyData.sol",
  "compiler": {
    "name": "solc",
    "version": "0.8.1+commit.df193b15.Emscripten.clang"
  },
  "schemaVersion": "3.4.2",
  "updatedAt": "2021-10-04T23:22:23.231Z",
  "networkType": "ethereum",
  "devdoc": {
    "kind": "dev",
    "methods": {
      "authorizeContract(address)": {
        "details": "Sets Application Contract Address from this Data Contract receives requests from "
      },
      "constructor": {
        "details": "Constructor      The deploying account becomes contractOwner"
      },
      "createAirline(address)": {
        "details": "Create an airline      Can only be called from FlightSuretyApp contract"
      },
      "createFlight(address,string,uint256,uint8)": {
        "details": "Create a fligth      Can only be called from FlightSuretyApp contract"
      },
      "createInsurance(address,uint256,uint256)": {
        "details": "Buy insurance for a flight"
      },
      "creditInsurees(uint256,uint256)": {
        "details": "Credits payouts to insurees"
      },
      "deauthorizeContract(address)": {
        "details": "Deletes the Application Contract and stops getting requests from it. "
      },
      "fund()": {
        "details": "Initial funding for the insurance. Unless there are too many delayed flights      resulting in insurance payouts, the contract should be self-sustaining"
      },
      "isOperational()": {
        "details": "Get operating status of contract",
        "returns": {
          "_0": "A bool that is the current operating status"
        }
      },
      "pay(address,uint256)": {
        "details": "Transfers eligible payout funds to insuree"
      },
      "setOperatingStatus(bool)": {
        "details": "Sets contract operations on/off When operational mode is disabled, all write transactions except for this one will fail"
      }
    },
    "version": 1
  },
  "userdoc": {
    "kind": "user",
    "methods": {},
    "version": 1
  }
}